{
  "contractName": "VERC721",
  "abi": [
    {
      "inputs": [
        {
          "internalType": "string",
          "name": "name_",
          "type": "string"
        },
        {
          "internalType": "string",
          "name": "symbol_",
          "type": "string"
        }
      ],
      "stateMutability": "nonpayable",
      "type": "constructor"
    },
    {
      "anonymous": false,
      "inputs": [
        {
          "indexed": true,
          "internalType": "address",
          "name": "owner",
          "type": "address"
        },
        {
          "indexed": true,
          "internalType": "address",
          "name": "approved",
          "type": "address"
        },
        {
          "indexed": true,
          "internalType": "uint256",
          "name": "tokenId",
          "type": "uint256"
        }
      ],
      "name": "Approval",
      "type": "event"
    },
    {
      "anonymous": false,
      "inputs": [
        {
          "indexed": true,
          "internalType": "address",
          "name": "owner",
          "type": "address"
        },
        {
          "indexed": true,
          "internalType": "address",
          "name": "operator",
          "type": "address"
        },
        {
          "indexed": false,
          "internalType": "bool",
          "name": "approved",
          "type": "bool"
        }
      ],
      "name": "ApprovalForAll",
      "type": "event"
    },
    {
      "anonymous": false,
      "inputs": [
        {
          "indexed": true,
          "internalType": "address",
          "name": "from",
          "type": "address"
        },
        {
          "indexed": true,
          "internalType": "address",
          "name": "to",
          "type": "address"
        },
        {
          "indexed": true,
          "internalType": "uint256",
          "name": "tokenId",
          "type": "uint256"
        }
      ],
      "name": "Transfer",
      "type": "event"
    },
    {
      "inputs": [
        {
          "internalType": "address",
          "name": "to",
          "type": "address"
        },
        {
          "internalType": "uint256",
          "name": "tokenId",
          "type": "uint256"
        }
      ],
      "name": "approve",
      "outputs": [],
      "stateMutability": "nonpayable",
      "type": "function"
    },
    {
      "inputs": [
        {
          "internalType": "address",
          "name": "owner",
          "type": "address"
        }
      ],
      "name": "balanceOf",
      "outputs": [
        {
          "internalType": "uint256",
          "name": "",
          "type": "uint256"
        }
      ],
      "stateMutability": "view",
      "type": "function",
      "constant": true
    },
    {
      "inputs": [
        {
          "internalType": "uint256",
          "name": "tokenId",
          "type": "uint256"
        }
      ],
      "name": "getApproved",
      "outputs": [
        {
          "internalType": "address",
          "name": "",
          "type": "address"
        }
      ],
      "stateMutability": "view",
      "type": "function",
      "constant": true
    },
    {
      "inputs": [
        {
          "internalType": "address",
          "name": "owner",
          "type": "address"
        },
        {
          "internalType": "address",
          "name": "operator",
          "type": "address"
        }
      ],
      "name": "isApprovedForAll",
      "outputs": [
        {
          "internalType": "bool",
          "name": "",
          "type": "bool"
        }
      ],
      "stateMutability": "view",
      "type": "function",
      "constant": true
    },
    {
      "inputs": [],
      "name": "mintingContract",
      "outputs": [
        {
          "internalType": "address",
          "name": "",
          "type": "address"
        }
      ],
      "stateMutability": "view",
      "type": "function",
      "constant": true
    },
    {
      "inputs": [],
      "name": "name",
      "outputs": [
        {
          "internalType": "string",
          "name": "",
          "type": "string"
        }
      ],
      "stateMutability": "view",
      "type": "function",
      "constant": true
    },
    {
      "inputs": [],
      "name": "owner",
      "outputs": [
        {
          "internalType": "address",
          "name": "",
          "type": "address"
        }
      ],
      "stateMutability": "view",
      "type": "function",
      "constant": true
    },
    {
      "inputs": [
        {
          "internalType": "uint256",
          "name": "tokenId",
          "type": "uint256"
        }
      ],
      "name": "ownerOf",
      "outputs": [
        {
          "internalType": "address",
          "name": "",
          "type": "address"
        }
      ],
      "stateMutability": "view",
      "type": "function",
      "constant": true
    },
    {
      "inputs": [
        {
          "internalType": "address",
          "name": "from",
          "type": "address"
        },
        {
          "internalType": "address",
          "name": "to",
          "type": "address"
        },
        {
          "internalType": "uint256",
          "name": "tokenId",
          "type": "uint256"
        }
      ],
      "name": "safeTransferFrom",
      "outputs": [],
      "stateMutability": "nonpayable",
      "type": "function"
    },
    {
      "inputs": [
        {
          "internalType": "address",
          "name": "from",
          "type": "address"
        },
        {
          "internalType": "address",
          "name": "to",
          "type": "address"
        },
        {
          "internalType": "uint256",
          "name": "tokenId",
          "type": "uint256"
        },
        {
          "internalType": "bytes",
          "name": "_data",
          "type": "bytes"
        }
      ],
      "name": "safeTransferFrom",
      "outputs": [],
      "stateMutability": "nonpayable",
      "type": "function"
    },
    {
      "inputs": [
        {
          "internalType": "address",
          "name": "operator",
          "type": "address"
        },
        {
          "internalType": "bool",
          "name": "approved",
          "type": "bool"
        }
      ],
      "name": "setApprovalForAll",
      "outputs": [],
      "stateMutability": "nonpayable",
      "type": "function"
    },
    {
      "inputs": [
        {
          "internalType": "bytes4",
          "name": "interfaceId",
          "type": "bytes4"
        }
      ],
      "name": "supportsInterface",
      "outputs": [
        {
          "internalType": "bool",
          "name": "",
          "type": "bool"
        }
      ],
      "stateMutability": "view",
      "type": "function",
      "constant": true
    },
    {
      "inputs": [],
      "name": "symbol",
      "outputs": [
        {
          "internalType": "string",
          "name": "",
          "type": "string"
        }
      ],
      "stateMutability": "view",
      "type": "function",
      "constant": true
    },
    {
      "inputs": [
        {
          "internalType": "uint256",
          "name": "tokenId",
          "type": "uint256"
        }
      ],
      "name": "tokenURI",
      "outputs": [
        {
          "internalType": "string",
          "name": "",
          "type": "string"
        }
      ],
      "stateMutability": "view",
      "type": "function",
      "constant": true
    },
    {
      "inputs": [
        {
          "internalType": "address",
          "name": "from",
          "type": "address"
        },
        {
          "internalType": "address",
          "name": "to",
          "type": "address"
        },
        {
          "internalType": "uint256",
          "name": "tokenId",
          "type": "uint256"
        }
      ],
      "name": "transferFrom",
      "outputs": [],
      "stateMutability": "nonpayable",
      "type": "function"
    },
    {
      "inputs": [
        {
          "internalType": "address",
          "name": "_address",
          "type": "address"
        }
      ],
      "name": "setMintingContract",
      "outputs": [],
      "stateMutability": "nonpayable",
      "type": "function"
    },
    {
      "inputs": [
        {
          "internalType": "address",
          "name": "_address",
          "type": "address"
        },
        {
          "internalType": "uint256",
          "name": "_tokenId",
          "type": "uint256"
        }
      ],
      "name": "mintNFTForUser",
      "outputs": [],
      "stateMutability": "nonpayable",
      "type": "function"
    }
  ],
  "bytecode": "0x60806040523480156200001157600080fd5b5060405162002ba138038062002ba18339818101604052810190620000379190620001d8565b8181816000908051906020019062000051929190620000b6565b5080600190805190602001906200006a929190620000b6565b50505033600760006101000a81548173ffffffffffffffffffffffffffffffffffffffff021916908373ffffffffffffffffffffffffffffffffffffffff16021790555050506200037c565b828054620000c490620002e8565b90600052602060002090601f016020900481019282620000e8576000855562000134565b82601f106200010357805160ff191683800117855562000134565b8280016001018555821562000134579182015b828111156200013357825182559160200191906001019062000116565b5b50905062000143919062000147565b5090565b5b808211156200016257600081600090555060010162000148565b5090565b60006200017d62000177846200027f565b6200024b565b9050828152602081018484840111156200019657600080fd5b620001a3848285620002b2565b509392505050565b600082601f830112620001bd57600080fd5b8151620001cf84826020860162000166565b91505092915050565b60008060408385031215620001ec57600080fd5b600083015167ffffffffffffffff8111156200020757600080fd5b6200021585828601620001ab565b925050602083015167ffffffffffffffff8111156200023357600080fd5b6200024185828601620001ab565b9150509250929050565b6000604051905081810181811067ffffffffffffffff821117156200027557620002746200034d565b5b8060405250919050565b600067ffffffffffffffff8211156200029d576200029c6200034d565b5b601f19601f8301169050602081019050919050565b60005b83811015620002d2578082015181840152602081019050620002b5565b83811115620002e2576000848401525b50505050565b600060028204905060018216806200030157607f821691505b602082108114156200031857620003176200031e565b5b50919050565b7f4e487b7100000000000000000000000000000000000000000000000000000000600052602260045260246000fd5b7f4e487b7100000000000000000000000000000000000000000000000000000000600052604160045260246000fd5b612815806200038c6000396000f3fe608060405234801561001057600080fd5b506004361061010b5760003560e01c806370a08231116100a2578063b88d4fde11610071578063b88d4fde146102b6578063c56e1375146102d2578063c87b56dd146102ee578063d2f6f67d1461031e578063e985e9c51461033c5761010b565b806370a082311461022e5780638da5cb5b1461025e57806395d89b411461027c578063a22cb4651461029a5761010b565b806323b872dd116100de57806323b872dd146101aa57806342842e0e146101c65780635fdb72cb146101e25780636352211e146101fe5761010b565b806301ffc9a71461011057806306fdde0314610140578063081812fc1461015e578063095ea7b31461018e575b600080fd5b61012a60048036038101906101259190611a85565b61036c565b60405161013791906121bd565b60405180910390f35b61014861044e565b60405161015591906121d8565b60405180910390f35b61017860048036038101906101739190611ad7565b6104e0565b6040516101859190612156565b60405180910390f35b6101a860048036038101906101a39190611a49565b610565565b005b6101c460048036038101906101bf9190611943565b61067d565b005b6101e060048036038101906101db9190611943565b6106dd565b005b6101fc60048036038101906101f79190611a49565b6106fd565b005b61021860048036038101906102139190611ad7565b61079b565b6040516102259190612156565b60405180910390f35b610248600480360381019061024391906118de565b61084d565b60405161025591906123da565b60405180910390f35b610266610905565b6040516102739190612156565b60405180910390f35b61028461092b565b60405161029191906121d8565b60405180910390f35b6102b460048036038101906102af9190611a0d565b6109bd565b005b6102d060048036038101906102cb9190611992565b610b3e565b005b6102ec60048036038101906102e791906118de565b610ba0565b005b61030860048036038101906103039190611ad7565b610c3e565b60405161031591906121d8565b60405180910390f35b610326610ce5565b6040516103339190612156565b60405180910390f35b61035660048036038101906103519190611907565b610d0b565b60405161036391906121bd565b60405180910390f35b60007f80ac58cd000000000000000000000000000000000000000000000000000000007bffffffffffffffffffffffffffffffffffffffffffffffffffffffff1916827bffffffffffffffffffffffffffffffffffffffffffffffffffffffff1916148061043757507f5b5e139f000000000000000000000000000000000000000000000000000000007bffffffffffffffffffffffffffffffffffffffffffffffffffffffff1916827bffffffffffffffffffffffffffffffffffffffffffffffffffffffff1916145b80610447575061044682610d9f565b5b9050919050565b60606000805461045d9061260a565b80601f01602080910402602001604051908101604052809291908181526020018280546104899061260a565b80156104d65780601f106104ab576101008083540402835291602001916104d6565b820191906000526020600020905b8154815290600101906020018083116104b957829003601f168201915b5050505050905090565b60006104eb82610e09565b61052a576040517f08c379a00000000000000000000000000000000000000000000000000000000081526004016105219061233a565b60405180910390fd5b6004600083815260200190815260200160002060009054906101000a900473ffffffffffffffffffffffffffffffffffffffff169050919050565b60006105708261079b565b90508073ffffffffffffffffffffffffffffffffffffffff168373ffffffffffffffffffffffffffffffffffffffff1614156105e1576040517f08c379a00000000000000000000000000000000000000000000000000000000081526004016105d89061239a565b60405180910390fd5b8073ffffffffffffffffffffffffffffffffffffffff16610600610e75565b73ffffffffffffffffffffffffffffffffffffffff16148061062f575061062e81610629610e75565b610d0b565b5b61066e576040517f08c379a0000000000000000000000000000000000000000000000000000000008152600401610665906122ba565b60405180910390fd5b6106788383610e7d565b505050565b61068e610688610e75565b82610f36565b6106cd576040517f08c379a00000000000000000000000000000000000000000000000000000000081526004016106c4906123ba565b60405180910390fd5b6106d8838383611014565b505050565b6106f883838360405180602001604052806000815250610b3e565b505050565b3373ffffffffffffffffffffffffffffffffffffffff16600660009054906101000a900473ffffffffffffffffffffffffffffffffffffffff1673ffffffffffffffffffffffffffffffffffffffff161461078d576040517f08c379a00000000000000000000000000000000000000000000000000000000081526004016107849061221a565b60405180910390fd5b6107978282611270565b5050565b6000806002600084815260200190815260200160002060009054906101000a900473ffffffffffffffffffffffffffffffffffffffff169050600073ffffffffffffffffffffffffffffffffffffffff168173ffffffffffffffffffffffffffffffffffffffff161415610844576040517f08c379a000000000000000000000000000000000000000000000000000000000815260040161083b906122fa565b60405180910390fd5b80915050919050565b60008073ffffffffffffffffffffffffffffffffffffffff168273ffffffffffffffffffffffffffffffffffffffff1614156108be576040517f08c379a00000000000000000000000000000000000000000000000000000000081526004016108b5906122da565b60405180910390fd5b600360008373ffffffffffffffffffffffffffffffffffffffff1673ffffffffffffffffffffffffffffffffffffffff168152602001908152602001600020549050919050565b600760009054906101000a900473ffffffffffffffffffffffffffffffffffffffff1681565b60606001805461093a9061260a565b80601f01602080910402602001604051908101604052809291908181526020018280546109669061260a565b80156109b35780601f10610988576101008083540402835291602001916109b3565b820191906000526020600020905b81548152906001019060200180831161099657829003601f168201915b5050505050905090565b6109c5610e75565b73ffffffffffffffffffffffffffffffffffffffff168273ffffffffffffffffffffffffffffffffffffffff161415610a33576040517f08c379a0000000000000000000000000000000000000000000000000000000008152600401610a2a9061227a565b60405180910390fd5b8060056000610a40610e75565b73ffffffffffffffffffffffffffffffffffffffff1673ffffffffffffffffffffffffffffffffffffffff16815260200190815260200160002060008473ffffffffffffffffffffffffffffffffffffffff1673ffffffffffffffffffffffffffffffffffffffff16815260200190815260200160002060006101000a81548160ff0219169083151502179055508173ffffffffffffffffffffffffffffffffffffffff16610aed610e75565b73ffffffffffffffffffffffffffffffffffffffff167f17307eab39ab6107e8899845ad3d59bd9653f200f220920489ca2b5937696c3183604051610b3291906121bd565b60405180910390a35050565b610b4f610b49610e75565b83610f36565b610b8e576040517f08c379a0000000000000000000000000000000000000000000000000000000008152600401610b85906123ba565b60405180910390fd5b610b9a8484848461143e565b50505050565b3373ffffffffffffffffffffffffffffffffffffffff16600760009054906101000a900473ffffffffffffffffffffffffffffffffffffffff1673ffffffffffffffffffffffffffffffffffffffff1614610bfa57600080fd5b80600660006101000a81548173ffffffffffffffffffffffffffffffffffffffff021916908373ffffffffffffffffffffffffffffffffffffffff16021790555050565b6060610c4982610e09565b610c88576040517f08c379a0000000000000000000000000000000000000000000000000000000008152600401610c7f9061237a565b60405180910390fd5b6000610c9261149a565b90506000815111610cb25760405180602001604052806000815250610cdd565b80610cbc846114b1565b604051602001610ccd929190612132565b6040516020818303038152906040525b915050919050565b600660009054906101000a900473ffffffffffffffffffffffffffffffffffffffff1681565b6000600560008473ffffffffffffffffffffffffffffffffffffffff1673ffffffffffffffffffffffffffffffffffffffff16815260200190815260200160002060008373ffffffffffffffffffffffffffffffffffffffff1673ffffffffffffffffffffffffffffffffffffffff16815260200190815260200160002060009054906101000a900460ff16905092915050565b60007f01ffc9a7000000000000000000000000000000000000000000000000000000007bffffffffffffffffffffffffffffffffffffffffffffffffffffffff1916827bffffffffffffffffffffffffffffffffffffffffffffffffffffffff1916149050919050565b60008073ffffffffffffffffffffffffffffffffffffffff166002600084815260200190815260200160002060009054906101000a900473ffffffffffffffffffffffffffffffffffffffff1673ffffffffffffffffffffffffffffffffffffffff1614159050919050565b600033905090565b816004600083815260200190815260200160002060006101000a81548173ffffffffffffffffffffffffffffffffffffffff021916908373ffffffffffffffffffffffffffffffffffffffff160217905550808273ffffffffffffffffffffffffffffffffffffffff16610ef08361079b565b73ffffffffffffffffffffffffffffffffffffffff167f8c5be1e5ebec7d5bd14f71427d1e84f3dd0314c0f7b2291e5b200ac8c7c3b92560405160405180910390a45050565b6000610f4182610e09565b610f80576040517f08c379a0000000000000000000000000000000000000000000000000000000008152600401610f779061229a565b60405180910390fd5b6000610f8b8361079b565b90508073ffffffffffffffffffffffffffffffffffffffff168473ffffffffffffffffffffffffffffffffffffffff161480610ffa57508373ffffffffffffffffffffffffffffffffffffffff16610fe2846104e0565b73ffffffffffffffffffffffffffffffffffffffff16145b8061100b575061100a8185610d0b565b5b91505092915050565b8273ffffffffffffffffffffffffffffffffffffffff166110348261079b565b73ffffffffffffffffffffffffffffffffffffffff161461108a576040517f08c379a00000000000000000000000000000000000000000000000000000000081526004016110819061235a565b60405180910390fd5b600073ffffffffffffffffffffffffffffffffffffffff168273ffffffffffffffffffffffffffffffffffffffff1614156110fa576040517f08c379a00000000000000000000000000000000000000000000000000000000081526004016110f19061225a565b60405180910390fd5b61110583838361165e565b611110600082610e7d565b6001600360008573ffffffffffffffffffffffffffffffffffffffff1673ffffffffffffffffffffffffffffffffffffffff16815260200190815260200160002060008282546111609190612520565b925050819055506001600360008473ffffffffffffffffffffffffffffffffffffffff1673ffffffffffffffffffffffffffffffffffffffff16815260200190815260200160002060008282546111b79190612499565b92505081905550816002600083815260200190815260200160002060006101000a81548173ffffffffffffffffffffffffffffffffffffffff021916908373ffffffffffffffffffffffffffffffffffffffff160217905550808273ffffffffffffffffffffffffffffffffffffffff168473ffffffffffffffffffffffffffffffffffffffff167fddf252ad1be2c89b69c2b068fc378daa952ba7f163c4a11628f55a4df523b3ef60405160405180910390a4505050565b600073ffffffffffffffffffffffffffffffffffffffff168273ffffffffffffffffffffffffffffffffffffffff1614156112e0576040517f08c379a00000000000000000000000000000000000000000000000000000000081526004016112d79061231a565b60405180910390fd5b6112e981610e09565b15611329576040517f08c379a00000000000000000000000000000000000000000000000000000000081526004016113209061223a565b60405180910390fd5b6113356000838361165e565b6001600360008473ffffffffffffffffffffffffffffffffffffffff1673ffffffffffffffffffffffffffffffffffffffff16815260200190815260200160002060008282546113859190612499565b92505081905550816002600083815260200190815260200160002060006101000a81548173ffffffffffffffffffffffffffffffffffffffff021916908373ffffffffffffffffffffffffffffffffffffffff160217905550808273ffffffffffffffffffffffffffffffffffffffff16600073ffffffffffffffffffffffffffffffffffffffff167fddf252ad1be2c89b69c2b068fc378daa952ba7f163c4a11628f55a4df523b3ef60405160405180910390a45050565b611449848484611014565b61145584848484611663565b611494576040517f08c379a000000000000000000000000000000000000000000000000000000000815260040161148b906121fa565b60405180910390fd5b50505050565b606060405180602001604052806000815250905090565b606060008214156114f9576040518060400160405280600181526020017f30000000000000000000000000000000000000000000000000000000000000008152509050611659565b600082905060005b6000821461152b5780806115149061263c565b915050600a8261152491906124ef565b9150611501565b60008167ffffffffffffffff81111561156d577f4e487b7100000000000000000000000000000000000000000000000000000000600052604160045260246000fd5b6040519080825280601f01601f19166020018201604052801561159f5781602001600182028036833780820191505090505b5090505b60008514611652576001826115b89190612520565b9150600a856115c79190612685565b60306115d39190612499565b60f81b81838151811061160f577f4e487b7100000000000000000000000000000000000000000000000000000000600052603260045260246000fd5b60200101907effffffffffffffffffffffffffffffffffffffffffffffffffffffffffffff1916908160001a905350600a8561164b91906124ef565b94506115a3565b8093505050505b919050565b505050565b60006116848473ffffffffffffffffffffffffffffffffffffffff166117fa565b156117ed578373ffffffffffffffffffffffffffffffffffffffff1663150b7a026116ad610e75565b8786866040518563ffffffff1660e01b81526004016116cf9493929190612171565b602060405180830381600087803b1580156116e957600080fd5b505af192505050801561171a57506040513d601f19601f820116820180604052508101906117179190611aae565b60015b61179d573d806000811461174a576040519150601f19603f3d011682016040523d82523d6000602084013e61174f565b606091505b50600081511415611795576040517f08c379a000000000000000000000000000000000000000000000000000000000815260040161178c906121fa565b60405180910390fd5b805181602001fd5b63150b7a0260e01b7bffffffffffffffffffffffffffffffffffffffffffffffffffffffff1916817bffffffffffffffffffffffffffffffffffffffffffffffffffffffff1916149150506117f2565b600190505b949350505050565b600080823b905060008111915050919050565b600061182061181b84612426565b6123f5565b90508281526020810184848401111561183857600080fd5b6118438482856125c8565b509392505050565b60008135905061185a81612783565b92915050565b60008135905061186f8161279a565b92915050565b600081359050611884816127b1565b92915050565b600081519050611899816127b1565b92915050565b600082601f8301126118b057600080fd5b81356118c084826020860161180d565b91505092915050565b6000813590506118d8816127c8565b92915050565b6000602082840312156118f057600080fd5b60006118fe8482850161184b565b91505092915050565b6000806040838503121561191a57600080fd5b60006119288582860161184b565b92505060206119398582860161184b565b9150509250929050565b60008060006060848603121561195857600080fd5b60006119668682870161184b565b93505060206119778682870161184b565b9250506040611988868287016118c9565b9150509250925092565b600080600080608085870312156119a857600080fd5b60006119b68782880161184b565b94505060206119c78782880161184b565b93505060406119d8878288016118c9565b925050606085013567ffffffffffffffff8111156119f557600080fd5b611a018782880161189f565b91505092959194509250565b60008060408385031215611a2057600080fd5b6000611a2e8582860161184b565b9250506020611a3f85828601611860565b9150509250929050565b60008060408385031215611a5c57600080fd5b6000611a6a8582860161184b565b9250506020611a7b858286016118c9565b9150509250929050565b600060208284031215611a9757600080fd5b6000611aa584828501611875565b91505092915050565b600060208284031215611ac057600080fd5b6000611ace8482850161188a565b91505092915050565b600060208284031215611ae957600080fd5b6000611af7848285016118c9565b91505092915050565b611b0981612554565b82525050565b611b1881612566565b82525050565b6000611b2982612456565b611b33818561246c565b9350611b438185602086016125d7565b611b4c81612772565b840191505092915050565b6000611b6282612461565b611b6c818561247d565b9350611b7c8185602086016125d7565b611b8581612772565b840191505092915050565b6000611b9b82612461565b611ba5818561248e565b9350611bb58185602086016125d7565b80840191505092915050565b6000611bce60328361247d565b91507f4552433732313a207472616e7366657220746f206e6f6e20455243373231526560008301527f63656976657220696d706c656d656e74657200000000000000000000000000006020830152604082019050919050565b6000611c3460158361247d565b91507f4f6e6c79206d696e74696e6720636f6e747261637400000000000000000000006000830152602082019050919050565b6000611c74601c8361247d565b91507f4552433732313a20746f6b656e20616c7265616479206d696e746564000000006000830152602082019050919050565b6000611cb460248361247d565b91507f4552433732313a207472616e7366657220746f20746865207a65726f2061646460008301527f72657373000000000000000000000000000000000000000000000000000000006020830152604082019050919050565b6000611d1a60198361247d565b91507f4552433732313a20617070726f766520746f2063616c6c6572000000000000006000830152602082019050919050565b6000611d5a602c8361247d565b91507f4552433732313a206f70657261746f7220717565727920666f72206e6f6e657860008301527f697374656e7420746f6b656e00000000000000000000000000000000000000006020830152604082019050919050565b6000611dc060388361247d565b91507f4552433732313a20617070726f76652063616c6c6572206973206e6f74206f7760008301527f6e6572206e6f7220617070726f76656420666f7220616c6c00000000000000006020830152604082019050919050565b6000611e26602a8361247d565b91507f4552433732313a2062616c616e636520717565727920666f7220746865207a6560008301527f726f2061646472657373000000000000000000000000000000000000000000006020830152604082019050919050565b6000611e8c60298361247d565b91507f4552433732313a206f776e657220717565727920666f72206e6f6e657869737460008301527f656e7420746f6b656e00000000000000000000000000000000000000000000006020830152604082019050919050565b6000611ef260208361247d565b91507f4552433732313a206d696e7420746f20746865207a65726f20616464726573736000830152602082019050919050565b6000611f32602c8361247d565b91507f4552433732313a20617070726f76656420717565727920666f72206e6f6e657860008301527f697374656e7420746f6b656e00000000000000000000000000000000000000006020830152604082019050919050565b6000611f9860298361247d565b91507f4552433732313a207472616e73666572206f6620746f6b656e2074686174206960008301527f73206e6f74206f776e00000000000000000000000000000000000000000000006020830152604082019050919050565b6000611ffe602f8361247d565b91507f4552433732314d657461646174613a2055524920717565727920666f72206e6f60008301527f6e6578697374656e7420746f6b656e00000000000000000000000000000000006020830152604082019050919050565b600061206460218361247d565b91507f4552433732313a20617070726f76616c20746f2063757272656e74206f776e6560008301527f72000000000000000000000000000000000000000000000000000000000000006020830152604082019050919050565b60006120ca60318361247d565b91507f4552433732313a207472616e736665722063616c6c6572206973206e6f74206f60008301527f776e6572206e6f7220617070726f7665640000000000000000000000000000006020830152604082019050919050565b61212c816125be565b82525050565b600061213e8285611b90565b915061214a8284611b90565b91508190509392505050565b600060208201905061216b6000830184611b00565b92915050565b60006080820190506121866000830187611b00565b6121936020830186611b00565b6121a06040830185612123565b81810360608301526121b28184611b1e565b905095945050505050565b60006020820190506121d26000830184611b0f565b92915050565b600060208201905081810360008301526121f28184611b57565b905092915050565b6000602082019050818103600083015261221381611bc1565b9050919050565b6000602082019050818103600083015261223381611c27565b9050919050565b6000602082019050818103600083015261225381611c67565b9050919050565b6000602082019050818103600083015261227381611ca7565b9050919050565b6000602082019050818103600083015261229381611d0d565b9050919050565b600060208201905081810360008301526122b381611d4d565b9050919050565b600060208201905081810360008301526122d381611db3565b9050919050565b600060208201905081810360008301526122f381611e19565b9050919050565b6000602082019050818103600083015261231381611e7f565b9050919050565b6000602082019050818103600083015261233381611ee5565b9050919050565b6000602082019050818103600083015261235381611f25565b9050919050565b6000602082019050818103600083015261237381611f8b565b9050919050565b6000602082019050818103600083015261239381611ff1565b9050919050565b600060208201905081810360008301526123b381612057565b9050919050565b600060208201905081810360008301526123d3816120bd565b9050919050565b60006020820190506123ef6000830184612123565b92915050565b6000604051905081810181811067ffffffffffffffff8211171561241c5761241b612743565b5b8060405250919050565b600067ffffffffffffffff82111561244157612440612743565b5b601f19601f8301169050602081019050919050565b600081519050919050565b600081519050919050565b600082825260208201905092915050565b600082825260208201905092915050565b600081905092915050565b60006124a4826125be565b91506124af836125be565b9250827fffffffffffffffffffffffffffffffffffffffffffffffffffffffffffffffff038211156124e4576124e36126b6565b5b828201905092915050565b60006124fa826125be565b9150612505836125be565b925082612515576125146126e5565b5b828204905092915050565b600061252b826125be565b9150612536836125be565b925082821015612549576125486126b6565b5b828203905092915050565b600061255f8261259e565b9050919050565b60008115159050919050565b60007fffffffff0000000000000000000000000000000000000000000000000000000082169050919050565b600073ffffffffffffffffffffffffffffffffffffffff82169050919050565b6000819050919050565b82818337600083830152505050565b60005b838110156125f55780820151818401526020810190506125da565b83811115612604576000848401525b50505050565b6000600282049050600182168061262257607f821691505b6020821081141561263657612635612714565b5b50919050565b6000612647826125be565b91507fffffffffffffffffffffffffffffffffffffffffffffffffffffffffffffffff82141561267a576126796126b6565b5b600182019050919050565b6000612690826125be565b915061269b836125be565b9250826126ab576126aa6126e5565b5b828206905092915050565b7f4e487b7100000000000000000000000000000000000000000000000000000000600052601160045260246000fd5b7f4e487b7100000000000000000000000000000000000000000000000000000000600052601260045260246000fd5b7f4e487b7100000000000000000000000000000000000000000000000000000000600052602260045260246000fd5b7f4e487b7100000000000000000000000000000000000000000000000000000000600052604160045260246000fd5b6000601f19601f8301169050919050565b61278c81612554565b811461279757600080fd5b50565b6127a381612566565b81146127ae57600080fd5b50565b6127ba81612572565b81146127c557600080fd5b50565b6127d1816125be565b81146127dc57600080fd5b5056fea2646970667358221220a380ce3b37a2b58b7bd1f6f2ba0c7d34f0e0a011f06e1a9640c70a1ebb7164e064736f6c63430008000033",
  "immutableReferences": {},
  "source": "// SPDX-License-Identifier: MIT\npragma solidity >=0.4.22 <0.9.0;\npragma experimental ABIEncoderV2;\n\nimport '@openzeppelin/contracts/token/ERC721/ERC721.sol';\n\ncontract VERC721 is ERC721 {\n\n    address public mintingContract;\n    address public owner;\n    \n   \n   constructor(string memory name_, string memory symbol_) ERC721(name_, symbol_) {\n       owner = msg.sender;\n   }\n\n   modifier onlyMintingContract() {\n       require(mintingContract == msg.sender, \"Only minting contract\");\n       _;\n   }\n\n   modifier onlyOwner() {\n       require(owner == msg.sender);\n       _;\n   }\n\n   function setMintingContract(address _address) public  onlyOwner() {\n       mintingContract = _address;\n   }\n\n   function mintNFTForUser(address _address, uint _tokenId) public onlyMintingContract() {\n       _mint(_address, _tokenId);\n   }\n\n}",
  "sourcePath": "/Users/pro/Development/blockchain/solidity_course/16Start/solidity/lesson2/contracts/VERC721.sol",
  "compiler": {
    "name": "solc",
    "version": "0.8.0+commit.c7dfd78e.Emscripten.clang"
  },
  "schemaVersion": "3.4.3",
  "updatedAt": "2021-11-13T13:50:49.285Z",
  "networkType": "ethereum",
  "devdoc": {
    "kind": "dev",
    "methods": {
      "approve(address,uint256)": {
        "details": "See {IERC721-approve}."
      },
      "balanceOf(address)": {
        "details": "See {IERC721-balanceOf}."
      },
      "getApproved(uint256)": {
        "details": "See {IERC721-getApproved}."
      },
      "isApprovedForAll(address,address)": {
        "details": "See {IERC721-isApprovedForAll}."
      },
      "name()": {
        "details": "See {IERC721Metadata-name}."
      },
      "ownerOf(uint256)": {
        "details": "See {IERC721-ownerOf}."
      },
      "safeTransferFrom(address,address,uint256)": {
        "details": "See {IERC721-safeTransferFrom}."
      },
      "safeTransferFrom(address,address,uint256,bytes)": {
        "details": "See {IERC721-safeTransferFrom}."
      },
      "setApprovalForAll(address,bool)": {
        "details": "See {IERC721-setApprovalForAll}."
      },
      "supportsInterface(bytes4)": {
        "details": "See {IERC165-supportsInterface}."
      },
      "symbol()": {
        "details": "See {IERC721Metadata-symbol}."
      },
      "tokenURI(uint256)": {
        "details": "See {IERC721Metadata-tokenURI}."
      },
      "transferFrom(address,address,uint256)": {
        "details": "See {IERC721-transferFrom}."
      }
    },
    "version": 1
  },
  "userdoc": {
    "kind": "user",
    "methods": {},
    "version": 1
  }
}