{
  "contractName": "Voting",
  "abi": [
    {
      "inputs": [
        {
          "internalType": "string",
          "name": "_name",
          "type": "string"
        },
        {
          "internalType": "string",
          "name": "_symbol",
          "type": "string"
        },
        {
          "internalType": "address",
          "name": "_address",
          "type": "address"
        }
      ],
      "stateMutability": "nonpayable",
      "type": "constructor"
    },
    {
      "anonymous": false,
      "inputs": [
        {
          "indexed": false,
          "internalType": "address",
          "name": "_userAddress",
          "type": "address"
        },
        {
          "indexed": false,
          "internalType": "uint256",
          "name": "_subject",
          "type": "uint256"
        },
        {
          "indexed": false,
          "internalType": "uint256",
          "name": "_vote",
          "type": "uint256"
        }
      ],
      "name": "VoteEvent",
      "type": "event"
    },
    {
      "inputs": [
        {
          "internalType": "address",
          "name": "",
          "type": "address"
        }
      ],
      "name": "Admins",
      "outputs": [
        {
          "internalType": "bool",
          "name": "",
          "type": "bool"
        }
      ],
      "stateMutability": "view",
      "type": "function",
      "constant": true
    },
    {
      "inputs": [
        {
          "internalType": "address",
          "name": "",
          "type": "address"
        },
        {
          "internalType": "uint256",
          "name": "",
          "type": "uint256"
        }
      ],
      "name": "SubjectPlusVoteList",
      "outputs": [
        {
          "internalType": "uint256",
          "name": "subject",
          "type": "uint256"
        },
        {
          "internalType": "uint256",
          "name": "vote",
          "type": "uint256"
        }
      ],
      "stateMutability": "view",
      "type": "function",
      "constant": true
    },
    {
      "inputs": [
        {
          "internalType": "uint256",
          "name": "",
          "type": "uint256"
        }
      ],
      "name": "Subjects",
      "outputs": [
        {
          "internalType": "string",
          "name": "name",
          "type": "string"
        },
        {
          "internalType": "string",
          "name": "description",
          "type": "string"
        },
        {
          "internalType": "uint256",
          "name": "rate",
          "type": "uint256"
        },
        {
          "internalType": "uint256",
          "name": "startDate",
          "type": "uint256"
        },
        {
          "internalType": "uint256",
          "name": "endDate",
          "type": "uint256"
        },
        {
          "internalType": "bool",
          "name": "active",
          "type": "bool"
        }
      ],
      "stateMutability": "view",
      "type": "function",
      "constant": true
    },
    {
      "inputs": [
        {
          "internalType": "uint256",
          "name": "",
          "type": "uint256"
        }
      ],
      "name": "UserById",
      "outputs": [
        {
          "internalType": "address",
          "name": "",
          "type": "address"
        }
      ],
      "stateMutability": "view",
      "type": "function",
      "constant": true
    },
    {
      "inputs": [
        {
          "internalType": "address",
          "name": "",
          "type": "address"
        },
        {
          "internalType": "uint256",
          "name": "",
          "type": "uint256"
        }
      ],
      "name": "UserSubjects",
      "outputs": [
        {
          "internalType": "uint256",
          "name": "",
          "type": "uint256"
        }
      ],
      "stateMutability": "view",
      "type": "function",
      "constant": true
    },
    {
      "inputs": [
        {
          "internalType": "address",
          "name": "",
          "type": "address"
        }
      ],
      "name": "Users",
      "outputs": [
        {
          "internalType": "uint256",
          "name": "id",
          "type": "uint256"
        },
        {
          "internalType": "uint256",
          "name": "rate",
          "type": "uint256"
        },
        {
          "internalType": "uint256",
          "name": "age",
          "type": "uint256"
        },
        {
          "internalType": "string",
          "name": "nickname",
          "type": "string"
        }
      ],
      "stateMutability": "view",
      "type": "function",
      "constant": true
    },
    {
      "inputs": [
        {
          "internalType": "uint256",
          "name": "",
          "type": "uint256"
        }
      ],
      "name": "_result_list",
      "outputs": [
        {
          "internalType": "string",
          "name": "name",
          "type": "string"
        },
        {
          "internalType": "string",
          "name": "description",
          "type": "string"
        },
        {
          "internalType": "uint256",
          "name": "rate",
          "type": "uint256"
        },
        {
          "internalType": "uint256",
          "name": "startDate",
          "type": "uint256"
        },
        {
          "internalType": "uint256",
          "name": "endDate",
          "type": "uint256"
        },
        {
          "internalType": "bool",
          "name": "active",
          "type": "bool"
        }
      ],
      "stateMutability": "view",
      "type": "function",
      "constant": true
    },
    {
      "inputs": [],
      "name": "name",
      "outputs": [
        {
          "internalType": "string",
          "name": "",
          "type": "string"
        }
      ],
      "stateMutability": "view",
      "type": "function",
      "constant": true
    },
    {
      "inputs": [],
      "name": "owner",
      "outputs": [
        {
          "internalType": "address",
          "name": "",
          "type": "address"
        }
      ],
      "stateMutability": "view",
      "type": "function",
      "constant": true
    },
    {
      "inputs": [],
      "name": "subjectId",
      "outputs": [
        {
          "internalType": "uint256",
          "name": "",
          "type": "uint256"
        }
      ],
      "stateMutability": "view",
      "type": "function",
      "constant": true
    },
    {
      "inputs": [],
      "name": "symbol",
      "outputs": [
        {
          "internalType": "string",
          "name": "",
          "type": "string"
        }
      ],
      "stateMutability": "view",
      "type": "function",
      "constant": true
    },
    {
      "inputs": [],
      "name": "userId",
      "outputs": [
        {
          "internalType": "uint256",
          "name": "",
          "type": "uint256"
        }
      ],
      "stateMutability": "view",
      "type": "function",
      "constant": true
    },
    {
      "inputs": [],
      "name": "voteTokenAddress",
      "outputs": [
        {
          "internalType": "address",
          "name": "",
          "type": "address"
        }
      ],
      "stateMutability": "view",
      "type": "function",
      "constant": true
    },
    {
      "inputs": [
        {
          "internalType": "address",
          "name": "_address",
          "type": "address"
        }
      ],
      "name": "setVoteTokenAddress",
      "outputs": [],
      "stateMutability": "nonpayable",
      "type": "function"
    },
    {
      "inputs": [
        {
          "internalType": "address",
          "name": "_address",
          "type": "address"
        },
        {
          "internalType": "bool",
          "name": "_status",
          "type": "bool"
        }
      ],
      "name": "setAdmin",
      "outputs": [],
      "stateMutability": "nonpayable",
      "type": "function"
    },
    {
      "inputs": [
        {
          "internalType": "uint256",
          "name": "_age",
          "type": "uint256"
        },
        {
          "internalType": "string",
          "name": "_nickname",
          "type": "string"
        }
      ],
      "name": "signup",
      "outputs": [],
      "stateMutability": "nonpayable",
      "type": "function"
    },
    {
      "inputs": [
        {
          "internalType": "string",
          "name": "_name",
          "type": "string"
        },
        {
          "internalType": "string",
          "name": "_description",
          "type": "string"
        },
        {
          "internalType": "uint256",
          "name": "_rate",
          "type": "uint256"
        },
        {
          "internalType": "uint256",
          "name": "_startDate",
          "type": "uint256"
        },
        {
          "internalType": "uint256",
          "name": "_endDate",
          "type": "uint256"
        }
      ],
      "name": "addSubject",
      "outputs": [],
      "stateMutability": "nonpayable",
      "type": "function"
    },
    {
      "inputs": [
        {
          "internalType": "uint256",
          "name": "_subjectId",
          "type": "uint256"
        },
        {
          "internalType": "uint256",
          "name": "_vote",
          "type": "uint256"
        },
        {
          "internalType": "uint256",
          "name": "_token_amount",
          "type": "uint256"
        }
      ],
      "name": "vote",
      "outputs": [],
      "stateMutability": "nonpayable",
      "type": "function"
    },
    {
      "inputs": [
        {
          "internalType": "uint256",
          "name": "_subjectId",
          "type": "uint256"
        },
        {
          "internalType": "address",
          "name": "userAddress",
          "type": "address"
        }
      ],
      "name": "getUserVote",
      "outputs": [
        {
          "internalType": "uint256",
          "name": "",
          "type": "uint256"
        }
      ],
      "stateMutability": "view",
      "type": "function",
      "constant": true
    },
    {
      "inputs": [
        {
          "internalType": "address",
          "name": "_userAddress",
          "type": "address"
        }
      ],
      "name": "getUserSubjects",
      "outputs": [
        {
          "internalType": "uint256[]",
          "name": "",
          "type": "uint256[]"
        }
      ],
      "stateMutability": "view",
      "type": "function",
      "constant": true
    },
    {
      "inputs": [],
      "name": "getAllSubjects",
      "outputs": [
        {
          "components": [
            {
              "internalType": "string",
              "name": "name",
              "type": "string"
            },
            {
              "internalType": "string",
              "name": "description",
              "type": "string"
            },
            {
              "internalType": "uint256",
              "name": "rate",
              "type": "uint256"
            },
            {
              "internalType": "uint256",
              "name": "startDate",
              "type": "uint256"
            },
            {
              "internalType": "uint256",
              "name": "endDate",
              "type": "uint256"
            },
            {
              "internalType": "bool",
              "name": "active",
              "type": "bool"
            }
          ],
          "internalType": "struct Voting.subject[]",
          "name": "",
          "type": "tuple[]"
        }
      ],
      "stateMutability": "view",
      "type": "function",
      "constant": true
    }
  ],
  "bytecode": "0x60806040523480156200001157600080fd5b5060405162002a3f38038062002a3f83398181016040528101906200003791906200022c565b82600290805190602001906200004f929190620000f3565b50816003908051906020019062000068929190620000f3565b50336000806101000a81548173ffffffffffffffffffffffffffffffffffffffff021916908373ffffffffffffffffffffffffffffffffffffffff16021790555080600160006101000a81548173ffffffffffffffffffffffffffffffffffffffff021916908373ffffffffffffffffffffffffffffffffffffffff16021790555050505062000433565b828054620001019062000385565b90600052602060002090601f01602090048101928262000125576000855562000171565b82601f106200014057805160ff191683800117855562000171565b8280016001018555821562000171579182015b828111156200017057825182559160200191906001019062000153565b5b50905062000180919062000184565b5090565b5b808211156200019f57600081600090555060010162000185565b5090565b6000620001ba620001b484620002e8565b620002b4565b905082815260208101848484011115620001d357600080fd5b620001e08482856200034f565b509392505050565b600081519050620001f98162000419565b92915050565b600082601f8301126200021157600080fd5b815162000223848260208601620001a3565b91505092915050565b6000806000606084860312156200024257600080fd5b600084015167ffffffffffffffff8111156200025d57600080fd5b6200026b86828701620001ff565b935050602084015167ffffffffffffffff8111156200028957600080fd5b6200029786828701620001ff565b9250506040620002aa86828701620001e8565b9150509250925092565b6000604051905081810181811067ffffffffffffffff82111715620002de57620002dd620003ea565b5b8060405250919050565b600067ffffffffffffffff821115620003065762000305620003ea565b5b601f19601f8301169050602081019050919050565b600062000328826200032f565b9050919050565b600073ffffffffffffffffffffffffffffffffffffffff82169050919050565b60005b838110156200036f57808201518184015260208101905062000352565b838111156200037f576000848401525b50505050565b600060028204905060018216806200039e57607f821691505b60208210811415620003b557620003b4620003bb565b5b50919050565b7f4e487b7100000000000000000000000000000000000000000000000000000000600052602260045260246000fd5b7f4e487b7100000000000000000000000000000000000000000000000000000000600052604160045260246000fd5b62000424816200031b565b81146200043057600080fd5b50565b6125fc80620004436000396000f3fe608060405234801561001057600080fd5b50600436106101375760003560e01c80636e92c2ad116100b857806399b956a01161007c57806399b956a014610369578063bf718cd81461039c578063dab9743d146103ba578063ddfb444f146103d6578063e0fd77b214610407578063fb799c2f1461042357610137565b80636e92c2ad146102ac5780636fe2ff31146102e15780638a6655d6146103115780638da5cb5b1461032d57806395d89b411461034b57610137565b80632ce4b3a1116100ff5780632ce4b3a1146101f45780634b0bddd2146102245780635092e68a146102405780635163b1911461025e578063589759191461028e57610137565b806303c7881a1461013c57806306fdde031461016c5780630ec6d58a1461018a5780630f350d34146101ba57806324574d4d146101d6575b600080fd5b61015660048036038101906101519190611a93565b610458565b6040516101639190612175565b60405180910390f35b6101746104b6565b6040516101819190612044565b60405180910390f35b6101a4600480360381019061019f91906118d0565b610544565b6040516101b19190612029565b60405180910390f35b6101d460048036038101906101cf91906118d0565b610564565b005b6101de610636565b6040516101eb9190612175565b60405180910390f35b61020e60048036038101906102099190611935565b61063c565b60405161021b9190612175565b60405180910390f35b61023e600480360381019061023991906118f9565b61066d565b005b610248610756565b6040516102559190611f33565b60405180910390f35b610278600480360381019061027391906118d0565b61077c565b6040516102859190612007565b60405180910390f35b610296610813565b6040516102a39190612175565b60405180910390f35b6102c660048036038101906102c19190611a41565b610819565b6040516102d896959493929190612066565b60405180910390f35b6102fb60048036038101906102f69190611a41565b610982565b6040516103089190611f33565b60405180910390f35b61032b60048036038101906103269190611b23565b6109b5565b005b610335610dc5565b6040516103429190611f33565b60405180910390f35b610353610de9565b6040516103609190612044565b60405180910390f35b610383600480360381019061037e91906118d0565b610e77565b60405161039394939291906121b9565b60405180910390f35b6103a4610f2f565b6040516103b19190611fe5565b60405180910390f35b6103d460048036038101906103cf9190611acf565b6110eb565b005b6103f060048036038101906103eb9190611935565b611303565b6040516103fe929190612190565b60405180910390f35b610421600480360381019061041c919061199a565b611344565b005b61043d60048036038101906104389190611a41565b611576565b60405161044f96959493929190612066565b60405180910390f35b6000600860008373ffffffffffffffffffffffffffffffffffffffff1673ffffffffffffffffffffffffffffffffffffffff168152602001908152602001600020600401600084815260200190815260200160002054905092915050565b600280546104c390612482565b80601f01602080910402602001604051908101604052809291908181526020018280546104ef90612482565b801561053c5780601f106105115761010080835404028352916020019161053c565b820191906000526020600020905b81548152906001019060200180831161051f57829003601f168201915b505050505081565b60076020528060005260406000206000915054906101000a900460ff1681565b60008054906101000a900473ffffffffffffffffffffffffffffffffffffffff1673ffffffffffffffffffffffffffffffffffffffff163373ffffffffffffffffffffffffffffffffffffffff16146105f2576040517f08c379a00000000000000000000000000000000000000000000000000000000081526004016105e9906120f5565b60405180910390fd5b80600160006101000a81548173ffffffffffffffffffffffffffffffffffffffff021916908373ffffffffffffffffffffffffffffffffffffffff16021790555050565b60055481565b600b602052816000526040600020818154811061065857600080fd5b90600052602060002001600091509150505481565b60008054906101000a900473ffffffffffffffffffffffffffffffffffffffff1673ffffffffffffffffffffffffffffffffffffffff163373ffffffffffffffffffffffffffffffffffffffff16146106fb576040517f08c379a00000000000000000000000000000000000000000000000000000000081526004016106f2906120f5565b60405180910390fd5b80600760008473ffffffffffffffffffffffffffffffffffffffff1673ffffffffffffffffffffffffffffffffffffffff16815260200190815260200160002060006101000a81548160ff0219169083151502179055505050565b600160009054906101000a900473ffffffffffffffffffffffffffffffffffffffff1681565b6060600b60008373ffffffffffffffffffffffffffffffffffffffff1673ffffffffffffffffffffffffffffffffffffffff16815260200190815260200160002080548060200260200160405190810160405280929190818152602001828054801561080757602002820191906000526020600020905b8154815260200190600101908083116107f3575b50505050509050919050565b60045481565b6006818154811061082957600080fd5b906000526020600020906006020160009150905080600001805461084c90612482565b80601f016020809104026020016040519081016040528092919081815260200182805461087890612482565b80156108c55780601f1061089a576101008083540402835291602001916108c5565b820191906000526020600020905b8154815290600101906020018083116108a857829003601f168201915b5050505050908060010180546108da90612482565b80601f016020809104026020016040519081016040528092919081815260200182805461090690612482565b80156109535780601f1061092857610100808354040283529160200191610953565b820191906000526020600020905b81548152906001019060200180831161093657829003601f168201915b5050505050908060020154908060030154908060040154908060050160009054906101000a900460ff16905086565b60096020528060005260406000206000915054906101000a900473ffffffffffffffffffffffffffffffffffffffff1681565b6000600860003373ffffffffffffffffffffffffffffffffffffffff1673ffffffffffffffffffffffffffffffffffffffff168152602001908152602001600020600001541415610a3b576040517f08c379a0000000000000000000000000000000000000000000000000000000008152600401610a3290612135565b60405180910390fd5b600a600084815260200190815260200160002060020154821115610a94576040517f08c379a0000000000000000000000000000000000000000000000000000000008152600401610a8b906120d5565b60405180910390fd5b6000600160009054906101000a900473ffffffffffffffffffffffffffffffffffffffff16905060008173ffffffffffffffffffffffffffffffffffffffff166370a08231336040518263ffffffff1660e01b8152600401610af69190611f33565b60206040518083038186803b158015610b0e57600080fd5b505afa158015610b22573d6000803e3d6000fd5b505050506040513d601f19601f82011682018060405250810190610b469190611a6a565b11610b86576040517f08c379a0000000000000000000000000000000000000000000000000000000008152600401610b7d90612115565b60405180910390fd5b8073ffffffffffffffffffffffffffffffffffffffff166323b872dd3330856040518463ffffffff1660e01b8152600401610bc393929190611f4e565b602060405180830381600087803b158015610bdd57600080fd5b505af1158015610bf1573d6000803e3d6000fd5b505050506040513d601f19601f82011682018060405250810190610c159190611971565b50600060405180604001604052808681526020018581525090506103e88385610c3e919061238c565b610c48919061235b565b600860003373ffffffffffffffffffffffffffffffffffffffff1673ffffffffffffffffffffffffffffffffffffffff168152602001908152602001600020600401600087815260200190815260200160002081905550600b60003373ffffffffffffffffffffffffffffffffffffffff1673ffffffffffffffffffffffffffffffffffffffff168152602001908152602001600020859080600181540180825580915050600190039060005260206000200160009091909190915055600c60003373ffffffffffffffffffffffffffffffffffffffff1673ffffffffffffffffffffffffffffffffffffffff168152602001908152602001600020819080600181540180825580915050600190039060005260206000209060020201600090919091909150600082015181600001556020820151816001015550507ea6a07a12abd0e14095075702619f674b917829771316489ee2b35851533ba5338686604051610db693929190611fae565b60405180910390a15050505050565b60008054906101000a900473ffffffffffffffffffffffffffffffffffffffff1681565b60038054610df690612482565b80601f0160208091040260200160405190810160405280929190818152602001828054610e2290612482565b8015610e6f5780601f10610e4457610100808354040283529160200191610e6f565b820191906000526020600020905b815481529060010190602001808311610e5257829003601f168201915b505050505081565b6008602052806000526040600020600091509050806000015490806001015490806002015490806003018054610eac90612482565b80601f0160208091040260200160405190810160405280929190818152602001828054610ed890612482565b8015610f255780601f10610efa57610100808354040283529160200191610f25565b820191906000526020600020905b815481529060010190602001808311610f0857829003601f168201915b5050505050905084565b60606006805480602002602001604051908101604052809291908181526020016000905b828210156110e257838290600052602060002090600602016040518060c0016040529081600082018054610f8690612482565b80601f0160208091040260200160405190810160405280929190818152602001828054610fb290612482565b8015610fff5780601f10610fd457610100808354040283529160200191610fff565b820191906000526020600020905b815481529060010190602001808311610fe257829003601f168201915b5050505050815260200160018201805461101890612482565b80601f016020809104026020016040519081016040528092919081815260200182805461104490612482565b80156110915780601f1061106657610100808354040283529160200191611091565b820191906000526020600020905b81548152906001019060200180831161107457829003601f168201915b505050505081526020016002820154815260200160038201548152602001600482015481526020016005820160009054906101000a900460ff16151515158152505081526020019060010190610f53565b50505050905090565b6001600460008282546110fe9190612305565b925050819055506000600160009054906101000a900473ffffffffffffffffffffffffffffffffffffffff1690508073ffffffffffffffffffffffffffffffffffffffff1663a9059cbb33683635c9adc5dea000006040518363ffffffff1660e01b8152600401611170929190611f85565b602060405180830381600087803b15801561118a57600080fd5b505af115801561119e573d6000803e3d6000fd5b505050506040513d601f19601f820116820180604052508101906111c29190611971565b503360096000600454815260200190815260200160002060006101000a81548173ffffffffffffffffffffffffffffffffffffffff021916908373ffffffffffffffffffffffffffffffffffffffff160217905550600454600860003373ffffffffffffffffffffffffffffffffffffffff1673ffffffffffffffffffffffffffffffffffffffff1681526020019081526020016000206000018190555082600860003373ffffffffffffffffffffffffffffffffffffffff1673ffffffffffffffffffffffffffffffffffffffff1681526020019081526020016000206002018190555081600860003373ffffffffffffffffffffffffffffffffffffffff1673ffffffffffffffffffffffffffffffffffffffff16815260200190815260200160002060030190805190602001906112fd9291906116cf565b50505050565b600c602052816000526040600020818154811061131f57600080fd5b9060005260206000209060020201600091509150508060000154908060010154905082565b60011515600760003373ffffffffffffffffffffffffffffffffffffffff1673ffffffffffffffffffffffffffffffffffffffff16815260200190815260200160002060009054906101000a900460ff161515146113d7576040517f08c379a00000000000000000000000000000000000000000000000000000000081526004016113ce90612155565b60405180910390fd5b6001600560008282546113ea9190612305565b9250508190555084600a60006005548152602001908152602001600020600001908051906020019061141d9291906116cf565b5083600a60006005548152602001908152602001600020600101908051906020019061144a9291906116cf565b5082600a600060055481526020019081526020016000206002018190555081600a600060055481526020019081526020016000206003018190555080600a60006005548152602001908152602001600020600401819055506006600a60006005548152602001908152602001600020908060018154018082558091505060019003906000526020600020906006020160009091909190915060008201816000019080546114f690612482565b611501929190611755565b50600182018160010190805461151690612482565b611521929190611755565b506002820154816002015560038201548160030155600482015481600401556005820160009054906101000a900460ff168160050160006101000a81548160ff02191690831515021790555050505050505050565b600a60205280600052604060002060009150905080600001805461159990612482565b80601f01602080910402602001604051908101604052809291908181526020018280546115c590612482565b80156116125780601f106115e757610100808354040283529160200191611612565b820191906000526020600020905b8154815290600101906020018083116115f557829003601f168201915b50505050509080600101805461162790612482565b80601f016020809104026020016040519081016040528092919081815260200182805461165390612482565b80156116a05780601f10611675576101008083540402835291602001916116a0565b820191906000526020600020905b81548152906001019060200180831161168357829003601f168201915b5050505050908060020154908060030154908060040154908060050160009054906101000a900460ff16905086565b8280546116db90612482565b90600052602060002090601f0160209004810192826116fd5760008555611744565b82601f1061171657805160ff1916838001178555611744565b82800160010185558215611744579182015b82811115611743578251825591602001919060010190611728565b5b50905061175191906117e2565b5090565b82805461176190612482565b90600052602060002090601f01602090048101928261178357600085556117d1565b82601f1061179457805485556117d1565b828001600101855582156117d157600052602060002091601f016020900482015b828111156117d05782548255916001019190600101906117b5565b5b5090506117de91906117e2565b5090565b5b808211156117fb5760008160009055506001016117e3565b5090565b600061181261180d84612236565b612205565b90508281526020810184848401111561182a57600080fd5b611835848285612440565b509392505050565b60008135905061184c81612581565b92915050565b60008135905061186181612598565b92915050565b60008151905061187681612598565b92915050565b600082601f83011261188d57600080fd5b813561189d8482602086016117ff565b91505092915050565b6000813590506118b5816125af565b92915050565b6000815190506118ca816125af565b92915050565b6000602082840312156118e257600080fd5b60006118f08482850161183d565b91505092915050565b6000806040838503121561190c57600080fd5b600061191a8582860161183d565b925050602061192b85828601611852565b9150509250929050565b6000806040838503121561194857600080fd5b60006119568582860161183d565b9250506020611967858286016118a6565b9150509250929050565b60006020828403121561198357600080fd5b600061199184828501611867565b91505092915050565b600080600080600060a086880312156119b257600080fd5b600086013567ffffffffffffffff8111156119cc57600080fd5b6119d88882890161187c565b955050602086013567ffffffffffffffff8111156119f557600080fd5b611a018882890161187c565b9450506040611a12888289016118a6565b9350506060611a23888289016118a6565b9250506080611a34888289016118a6565b9150509295509295909350565b600060208284031215611a5357600080fd5b6000611a61848285016118a6565b91505092915050565b600060208284031215611a7c57600080fd5b6000611a8a848285016118bb565b91505092915050565b60008060408385031215611aa657600080fd5b6000611ab4858286016118a6565b9250506020611ac58582860161183d565b9150509250929050565b60008060408385031215611ae257600080fd5b6000611af0858286016118a6565b925050602083013567ffffffffffffffff811115611b0d57600080fd5b611b198582860161187c565b9150509250929050565b600080600060608486031215611b3857600080fd5b6000611b46868287016118a6565b9350506020611b57868287016118a6565b9250506040611b68868287016118a6565b9150509250925092565b6000611b7e8383611e85565b905092915050565b6000611b928383611f15565b60208301905092915050565b611ba7816123e6565b82525050565b6000611bb882612286565b611bc281856122c1565b935083602082028501611bd485612266565b8060005b85811015611c105784840389528151611bf18582611b72565b9450611bfc836122a7565b925060208a01995050600181019050611bd8565b50829750879550505050505092915050565b6000611c2d82612291565b611c3781856122d2565b9350611c4283612276565b8060005b83811015611c73578151611c5a8882611b86565b9750611c65836122b4565b925050600181019050611c46565b5085935050505092915050565b611c89816123f8565b82525050565b611c98816123f8565b82525050565b611ca78161242e565b82525050565b6000611cb88261229c565b611cc281856122e3565b9350611cd281856020860161244f565b611cdb81612570565b840191505092915050565b6000611cf18261229c565b611cfb81856122f4565b9350611d0b81856020860161244f565b611d1481612570565b840191505092915050565b6000611d2c6025836122f4565b91507f5375626a65637420726174652063616e6e6f74206265206d6f7265207468616e60008301527f20726174650000000000000000000000000000000000000000000000000000006020830152604082019050919050565b6000611d92600a836122f4565b91507f4f6e6c79206f776e6572000000000000000000000000000000000000000000006000830152602082019050919050565b6000611dd26012836122f4565b91507f4f6e6c6520746f6b656e73206f776e65727300000000000000000000000000006000830152602082019050919050565b6000611e126014836122f4565b91507f4e6f7420726567697374657265642075736572210000000000000000000000006000830152602082019050919050565b6000611e52600b836122f4565b91507f4f6e6c792061646d696e210000000000000000000000000000000000000000006000830152602082019050919050565b600060c0830160008301518482036000860152611ea28282611cad565b91505060208301518482036020860152611ebc8282611cad565b9150506040830151611ed16040860182611f15565b506060830151611ee46060860182611f15565b506080830151611ef76080860182611f15565b5060a0830151611f0a60a0860182611c80565b508091505092915050565b611f1e81612424565b82525050565b611f2d81612424565b82525050565b6000602082019050611f486000830184611b9e565b92915050565b6000606082019050611f636000830186611b9e565b611f706020830185611b9e565b611f7d6040830184611f24565b949350505050565b6000604082019050611f9a6000830185611b9e565b611fa76020830184611c9e565b9392505050565b6000606082019050611fc36000830186611b9e565b611fd06020830185611f24565b611fdd6040830184611f24565b949350505050565b60006020820190508181036000830152611fff8184611bad565b905092915050565b600060208201905081810360008301526120218184611c22565b905092915050565b600060208201905061203e6000830184611c8f565b92915050565b6000602082019050818103600083015261205e8184611ce6565b905092915050565b600060c08201905081810360008301526120808189611ce6565b905081810360208301526120948188611ce6565b90506120a36040830187611f24565b6120b06060830186611f24565b6120bd6080830185611f24565b6120ca60a0830184611c8f565b979650505050505050565b600060208201905081810360008301526120ee81611d1f565b9050919050565b6000602082019050818103600083015261210e81611d85565b9050919050565b6000602082019050818103600083015261212e81611dc5565b9050919050565b6000602082019050818103600083015261214e81611e05565b9050919050565b6000602082019050818103600083015261216e81611e45565b9050919050565b600060208201905061218a6000830184611f24565b92915050565b60006040820190506121a56000830185611f24565b6121b26020830184611f24565b9392505050565b60006080820190506121ce6000830187611f24565b6121db6020830186611f24565b6121e86040830185611f24565b81810360608301526121fa8184611ce6565b905095945050505050565b6000604051905081810181811067ffffffffffffffff8211171561222c5761222b612541565b5b8060405250919050565b600067ffffffffffffffff82111561225157612250612541565b5b601f19601f8301169050602081019050919050565b6000819050602082019050919050565b6000819050602082019050919050565b600081519050919050565b600081519050919050565b600081519050919050565b6000602082019050919050565b6000602082019050919050565b600082825260208201905092915050565b600082825260208201905092915050565b600082825260208201905092915050565b600082825260208201905092915050565b600061231082612424565b915061231b83612424565b9250827fffffffffffffffffffffffffffffffffffffffffffffffffffffffffffffffff038211156123505761234f6124b4565b5b828201905092915050565b600061236682612424565b915061237183612424565b925082612381576123806124e3565b5b828204905092915050565b600061239782612424565b91506123a283612424565b9250817fffffffffffffffffffffffffffffffffffffffffffffffffffffffffffffffff04831182151516156123db576123da6124b4565b5b828202905092915050565b60006123f182612404565b9050919050565b60008115159050919050565b600073ffffffffffffffffffffffffffffffffffffffff82169050919050565b6000819050919050565b600061243982612424565b9050919050565b82818337600083830152505050565b60005b8381101561246d578082015181840152602081019050612452565b8381111561247c576000848401525b50505050565b6000600282049050600182168061249a57607f821691505b602082108114156124ae576124ad612512565b5b50919050565b7f4e487b7100000000000000000000000000000000000000000000000000000000600052601160045260246000fd5b7f4e487b7100000000000000000000000000000000000000000000000000000000600052601260045260246000fd5b7f4e487b7100000000000000000000000000000000000000000000000000000000600052602260045260246000fd5b7f4e487b7100000000000000000000000000000000000000000000000000000000600052604160045260246000fd5b6000601f19601f8301169050919050565b61258a816123e6565b811461259557600080fd5b50565b6125a1816123f8565b81146125ac57600080fd5b50565b6125b881612424565b81146125c357600080fd5b5056fea2646970667358221220ae5ee6073cd5e1159752de0b718180f4f243c13d980d80ae9cfb32ba38b3bfea64736f6c63430008000033",
  "immutableReferences": {},
  "source": "// SPDX-License-Identifier: MIT\npragma solidity >=0.4.22 <0.9.0;\npragma experimental ABIEncoderV2;\n\nimport '@openzeppelin/contracts/token/ERC20/IERC20.sol';\n\ncontract Voting {\n    address public owner;\n    address public voteTokenAddress;\n    string public name;\n    string public symbol;\n\n    uint public userId;\n    uint public subjectId;\n\n\n    event VoteEvent (address _userAddress, uint _subject, uint _vote);\n\n    struct user {\n        uint id;\n        uint rate;\n        uint age;\n        string nickname;\n\n        mapping(uint => uint) Vote;\n    }\n\n    struct subject {\n        string name;\n        string description;\n        uint rate;\n        uint startDate;\n        uint endDate;\n        bool active;\n    }\n\n    struct subjectAndVote {\n        uint subject;\n        uint vote;\n    }\n\n    struct resultSubject {\n           string _name;\n           string _description;\n           bool _active;\n    }\n\n    subject[] public _result_list;\n\n    constructor(string memory _name, string memory _symbol, address _address) {\n        name = _name;\n        symbol = _symbol;\n        owner = msg.sender;\n        voteTokenAddress = _address;\n    }\n\n    mapping(address => bool) public Admins;\n    mapping(address => user) public Users;\n    mapping(uint => address) public UserById;\n\n    mapping(uint => subject) public Subjects;\n\n    mapping(address => uint[]) public UserSubjects;\n\n    mapping(address => subjectAndVote[]) public SubjectPlusVoteList;\n\n    modifier onlyOwner(){\n        require(msg.sender == owner, \"Only owner\");\n        _;\n    }\n\n    modifier onlyAdmin(){\n        require(Admins[msg.sender] == true, \"Only admin!\");\n        _;\n    }\n\n\n    function setVoteTokenAddress(address _address) public onlyOwner {\n        voteTokenAddress = _address;\n    }\n\n    function setAdmin(address _address, bool _status) public onlyOwner {\n        Admins[_address] = _status;\n    }\n\n    function signup(uint _age, string memory _nickname) public {\n        userId += 1;\n        IERC20 _vote_token = IERC20(voteTokenAddress);\n        _vote_token.transfer(msg.sender, 1000 * 10 ** 18);\n        UserById[userId] = msg.sender;\n        Users[msg.sender].id = userId;\n        Users[msg.sender].age = _age;\n        Users[msg.sender].nickname = _nickname;\n\n    }\n\n    function addSubject(string memory _name,\n        string memory _description,\n        uint _rate,\n        uint _startDate,\n        uint _endDate) public onlyAdmin {\n\n        subjectId += 1;\n\n        Subjects[subjectId].name = _name;\n        Subjects[subjectId].description = _description;\n        Subjects[subjectId].rate = _rate;\n        Subjects[subjectId].startDate = _startDate;\n        Subjects[subjectId].endDate = _endDate;\n        _result_list.push(Subjects[subjectId]);\n    }\n\n    function vote(uint _subjectId, uint _vote, uint _token_amount) public {\n        require(Users[msg.sender].id != 0, \"Not registered user!\");\n        require(_vote <= Subjects[_subjectId].rate, \"Subject rate cannot be more than rate\");\n\n        IERC20 _vote_token = IERC20(voteTokenAddress);\n        require(_vote_token.balanceOf(msg.sender) > 0, \"Onle tokens owners\");\n         // transfer from \n        _vote_token.transferFrom(msg.sender, address(this), _token_amount);\n        \n        subjectAndVote memory currentList = subjectAndVote ({subject: _subjectId, vote: _vote});\n\n        Users[msg.sender].Vote[_subjectId] = _vote * _token_amount / 1000;\n        UserSubjects[msg.sender].push(_subjectId);\n\n        SubjectPlusVoteList[msg.sender].push(currentList);\n\n        emit VoteEvent(msg.sender, _subjectId, _vote);\n    }\n\n    function getUserVote(uint _subjectId, address userAddress) public view returns (uint) {\n        return Users[userAddress].Vote[_subjectId];\n    }\n\n    function getUserSubjects(address _userAddress) public view returns (uint[] memory){\n        return UserSubjects[_userAddress];\n    }\n\n    function getAllSubjects() public view returns(subject[] memory) {\n       return _result_list;                                         \n    }\n\n}",
  "sourcePath": "/Users/pro/Development/blockchain/solidity_course/16Start/solidity/lesson2/contracts/Voting.sol",
  "compiler": {
    "name": "solc",
    "version": "0.8.0+commit.c7dfd78e.Emscripten.clang"
  },
  "schemaVersion": "3.4.3",
  "updatedAt": "2021-11-06T12:13:48.220Z",
  "networkType": "ethereum",
  "devdoc": {
    "kind": "dev",
    "methods": {},
    "version": 1
  },
  "userdoc": {
    "kind": "user",
    "methods": {},
    "version": 1
  }
}