{
  "contractName": "Voting",
  "abi": [
    {
      "inputs": [
        {
          "internalType": "string",
          "name": "_name",
          "type": "string"
        },
        {
          "internalType": "string",
          "name": "_symbol",
          "type": "string"
        },
        {
          "internalType": "address",
          "name": "_address",
          "type": "address"
        },
        {
          "internalType": "address",
          "name": "_nft_address",
          "type": "address"
        }
      ],
      "stateMutability": "nonpayable",
      "type": "constructor"
    },
    {
      "anonymous": false,
      "inputs": [
        {
          "indexed": false,
          "internalType": "address",
          "name": "_userAddress",
          "type": "address"
        },
        {
          "indexed": false,
          "internalType": "uint256",
          "name": "_subject",
          "type": "uint256"
        },
        {
          "indexed": false,
          "internalType": "uint256",
          "name": "_vote",
          "type": "uint256"
        }
      ],
      "name": "VoteEvent",
      "type": "event"
    },
    {
      "inputs": [
        {
          "internalType": "address",
          "name": "",
          "type": "address"
        }
      ],
      "name": "Admins",
      "outputs": [
        {
          "internalType": "bool",
          "name": "",
          "type": "bool"
        }
      ],
      "stateMutability": "view",
      "type": "function",
      "constant": true
    },
    {
      "inputs": [
        {
          "internalType": "uint256",
          "name": "",
          "type": "uint256"
        }
      ],
      "name": "CollectionBySubjectID",
      "outputs": [
        {
          "internalType": "address",
          "name": "",
          "type": "address"
        }
      ],
      "stateMutability": "view",
      "type": "function",
      "constant": true
    },
    {
      "inputs": [
        {
          "internalType": "uint256",
          "name": "",
          "type": "uint256"
        },
        {
          "internalType": "uint256",
          "name": "",
          "type": "uint256"
        }
      ],
      "name": "SubjectNFTIdList",
      "outputs": [
        {
          "internalType": "uint256",
          "name": "",
          "type": "uint256"
        }
      ],
      "stateMutability": "view",
      "type": "function",
      "constant": true
    },
    {
      "inputs": [
        {
          "internalType": "address",
          "name": "",
          "type": "address"
        },
        {
          "internalType": "uint256",
          "name": "",
          "type": "uint256"
        }
      ],
      "name": "SubjectPlusVoteList",
      "outputs": [
        {
          "internalType": "uint256",
          "name": "subject",
          "type": "uint256"
        },
        {
          "internalType": "uint256",
          "name": "vote",
          "type": "uint256"
        }
      ],
      "stateMutability": "view",
      "type": "function",
      "constant": true
    },
    {
      "inputs": [
        {
          "internalType": "uint256",
          "name": "",
          "type": "uint256"
        }
      ],
      "name": "Subjects",
      "outputs": [
        {
          "internalType": "string",
          "name": "name",
          "type": "string"
        },
        {
          "internalType": "string",
          "name": "description",
          "type": "string"
        },
        {
          "internalType": "uint256",
          "name": "rate",
          "type": "uint256"
        },
        {
          "internalType": "uint256",
          "name": "startDate",
          "type": "uint256"
        },
        {
          "internalType": "uint256",
          "name": "endDate",
          "type": "uint256"
        },
        {
          "internalType": "bool",
          "name": "active",
          "type": "bool"
        }
      ],
      "stateMutability": "view",
      "type": "function",
      "constant": true
    },
    {
      "inputs": [
        {
          "internalType": "uint256",
          "name": "",
          "type": "uint256"
        }
      ],
      "name": "UserById",
      "outputs": [
        {
          "internalType": "address",
          "name": "",
          "type": "address"
        }
      ],
      "stateMutability": "view",
      "type": "function",
      "constant": true
    },
    {
      "inputs": [
        {
          "internalType": "address",
          "name": "",
          "type": "address"
        },
        {
          "internalType": "uint256",
          "name": "",
          "type": "uint256"
        }
      ],
      "name": "UserSubjects",
      "outputs": [
        {
          "internalType": "uint256",
          "name": "",
          "type": "uint256"
        }
      ],
      "stateMutability": "view",
      "type": "function",
      "constant": true
    },
    {
      "inputs": [
        {
          "internalType": "address",
          "name": "",
          "type": "address"
        }
      ],
      "name": "Users",
      "outputs": [
        {
          "internalType": "uint256",
          "name": "id",
          "type": "uint256"
        },
        {
          "internalType": "uint256",
          "name": "rate",
          "type": "uint256"
        },
        {
          "internalType": "uint256",
          "name": "age",
          "type": "uint256"
        },
        {
          "internalType": "string",
          "name": "nickname",
          "type": "string"
        }
      ],
      "stateMutability": "view",
      "type": "function",
      "constant": true
    },
    {
      "inputs": [
        {
          "internalType": "uint256",
          "name": "",
          "type": "uint256"
        }
      ],
      "name": "UsersNFT",
      "outputs": [
        {
          "internalType": "uint256",
          "name": "id",
          "type": "uint256"
        },
        {
          "internalType": "uint256",
          "name": "rate",
          "type": "uint256"
        },
        {
          "internalType": "uint256",
          "name": "age",
          "type": "uint256"
        },
        {
          "internalType": "string",
          "name": "nickname",
          "type": "string"
        }
      ],
      "stateMutability": "view",
      "type": "function",
      "constant": true
    },
    {
      "inputs": [
        {
          "internalType": "uint256",
          "name": "",
          "type": "uint256"
        }
      ],
      "name": "_result_list",
      "outputs": [
        {
          "internalType": "string",
          "name": "name",
          "type": "string"
        },
        {
          "internalType": "string",
          "name": "description",
          "type": "string"
        },
        {
          "internalType": "uint256",
          "name": "rate",
          "type": "uint256"
        },
        {
          "internalType": "uint256",
          "name": "startDate",
          "type": "uint256"
        },
        {
          "internalType": "uint256",
          "name": "endDate",
          "type": "uint256"
        },
        {
          "internalType": "bool",
          "name": "active",
          "type": "bool"
        }
      ],
      "stateMutability": "view",
      "type": "function",
      "constant": true
    },
    {
      "inputs": [],
      "name": "name",
      "outputs": [
        {
          "internalType": "string",
          "name": "",
          "type": "string"
        }
      ],
      "stateMutability": "view",
      "type": "function",
      "constant": true
    },
    {
      "inputs": [],
      "name": "owner",
      "outputs": [
        {
          "internalType": "address",
          "name": "",
          "type": "address"
        }
      ],
      "stateMutability": "view",
      "type": "function",
      "constant": true
    },
    {
      "inputs": [],
      "name": "subjectId",
      "outputs": [
        {
          "internalType": "uint256",
          "name": "",
          "type": "uint256"
        }
      ],
      "stateMutability": "view",
      "type": "function",
      "constant": true
    },
    {
      "inputs": [],
      "name": "symbol",
      "outputs": [
        {
          "internalType": "string",
          "name": "",
          "type": "string"
        }
      ],
      "stateMutability": "view",
      "type": "function",
      "constant": true
    },
    {
      "inputs": [],
      "name": "userId",
      "outputs": [
        {
          "internalType": "uint256",
          "name": "",
          "type": "uint256"
        }
      ],
      "stateMutability": "view",
      "type": "function",
      "constant": true
    },
    {
      "inputs": [],
      "name": "voteNFTTokenAddress",
      "outputs": [
        {
          "internalType": "address",
          "name": "",
          "type": "address"
        }
      ],
      "stateMutability": "view",
      "type": "function",
      "constant": true
    },
    {
      "inputs": [],
      "name": "voteTokenAddress",
      "outputs": [
        {
          "internalType": "address",
          "name": "",
          "type": "address"
        }
      ],
      "stateMutability": "view",
      "type": "function",
      "constant": true
    },
    {
      "inputs": [
        {
          "internalType": "address",
          "name": "_address",
          "type": "address"
        }
      ],
      "name": "setVoteTokenAddress",
      "outputs": [],
      "stateMutability": "nonpayable",
      "type": "function"
    },
    {
      "inputs": [
        {
          "internalType": "address",
          "name": "_address",
          "type": "address"
        },
        {
          "internalType": "bool",
          "name": "_status",
          "type": "bool"
        }
      ],
      "name": "setAdmin",
      "outputs": [],
      "stateMutability": "nonpayable",
      "type": "function"
    },
    {
      "inputs": [
        {
          "internalType": "uint256",
          "name": "_age",
          "type": "uint256"
        },
        {
          "internalType": "string",
          "name": "_nickname",
          "type": "string"
        }
      ],
      "name": "signup",
      "outputs": [],
      "stateMutability": "nonpayable",
      "type": "function"
    },
    {
      "inputs": [
        {
          "internalType": "uint256",
          "name": "_subjectId",
          "type": "uint256"
        }
      ],
      "name": "signUpToSubject",
      "outputs": [],
      "stateMutability": "nonpayable",
      "type": "function"
    },
    {
      "inputs": [
        {
          "internalType": "string",
          "name": "_name",
          "type": "string"
        },
        {
          "internalType": "string",
          "name": "_description",
          "type": "string"
        },
        {
          "internalType": "uint256",
          "name": "_rate",
          "type": "uint256"
        },
        {
          "internalType": "uint256",
          "name": "_startDate",
          "type": "uint256"
        },
        {
          "internalType": "uint256",
          "name": "_endDate",
          "type": "uint256"
        }
      ],
      "name": "addSubject",
      "outputs": [],
      "stateMutability": "nonpayable",
      "type": "function"
    },
    {
      "inputs": [
        {
          "internalType": "uint256",
          "name": "_subjectId",
          "type": "uint256"
        },
        {
          "internalType": "uint256",
          "name": "_vote",
          "type": "uint256"
        },
        {
          "internalType": "uint256",
          "name": "_token_amount",
          "type": "uint256"
        }
      ],
      "name": "vote",
      "outputs": [],
      "stateMutability": "nonpayable",
      "type": "function"
    },
    {
      "inputs": [
        {
          "internalType": "uint256",
          "name": "_subjectId",
          "type": "uint256"
        },
        {
          "internalType": "address",
          "name": "userAddress",
          "type": "address"
        }
      ],
      "name": "getUserVote",
      "outputs": [
        {
          "internalType": "uint256",
          "name": "",
          "type": "uint256"
        }
      ],
      "stateMutability": "view",
      "type": "function",
      "constant": true
    },
    {
      "inputs": [
        {
          "internalType": "address",
          "name": "_userAddress",
          "type": "address"
        }
      ],
      "name": "getUserSubjects",
      "outputs": [
        {
          "internalType": "uint256[]",
          "name": "",
          "type": "uint256[]"
        }
      ],
      "stateMutability": "view",
      "type": "function",
      "constant": true
    },
    {
      "inputs": [],
      "name": "getAllSubjects",
      "outputs": [
        {
          "components": [
            {
              "internalType": "string",
              "name": "name",
              "type": "string"
            },
            {
              "internalType": "string",
              "name": "description",
              "type": "string"
            },
            {
              "internalType": "uint256",
              "name": "rate",
              "type": "uint256"
            },
            {
              "internalType": "uint256",
              "name": "startDate",
              "type": "uint256"
            },
            {
              "internalType": "uint256",
              "name": "endDate",
              "type": "uint256"
            },
            {
              "internalType": "bool",
              "name": "active",
              "type": "bool"
            }
          ],
          "internalType": "struct Voting.subject[]",
          "name": "",
          "type": "tuple[]"
        }
      ],
      "stateMutability": "view",
      "type": "function",
      "constant": true
    }
  ],
  "bytecode": "0x60806040523480156200001157600080fd5b506040516200606d3803806200606d83398181016040528101906200003791906200026e565b83600390805190602001906200004f92919062000135565b5082600490805190602001906200006892919062000135565b50336000806101000a81548173ffffffffffffffffffffffffffffffffffffffff021916908373ffffffffffffffffffffffffffffffffffffffff16021790555081600160006101000a81548173ffffffffffffffffffffffffffffffffffffffff021916908373ffffffffffffffffffffffffffffffffffffffff16021790555080600260006101000a81548173ffffffffffffffffffffffffffffffffffffffff021916908373ffffffffffffffffffffffffffffffffffffffff160217905550505050506200048b565b8280546200014390620003dd565b90600052602060002090601f016020900481019282620001675760008555620001b3565b82601f106200018257805160ff1916838001178555620001b3565b82800160010185558215620001b3579182015b82811115620001b257825182559160200191906001019062000195565b5b509050620001c29190620001c6565b5090565b5b80821115620001e1576000816000905550600101620001c7565b5090565b6000620001fc620001f68462000340565b6200030c565b9050828152602081018484840111156200021557600080fd5b62000222848285620003a7565b509392505050565b6000815190506200023b8162000471565b92915050565b600082601f8301126200025357600080fd5b815162000265848260208601620001e5565b91505092915050565b600080600080608085870312156200028557600080fd5b600085015167ffffffffffffffff811115620002a057600080fd5b620002ae8782880162000241565b945050602085015167ffffffffffffffff811115620002cc57600080fd5b620002da8782880162000241565b9350506040620002ed878288016200022a565b925050606062000300878288016200022a565b91505092959194509250565b6000604051905081810181811067ffffffffffffffff8211171562000336576200033562000442565b5b8060405250919050565b600067ffffffffffffffff8211156200035e576200035d62000442565b5b601f19601f8301169050602081019050919050565b6000620003808262000387565b9050919050565b600073ffffffffffffffffffffffffffffffffffffffff82169050919050565b60005b83811015620003c7578082015181840152602081019050620003aa565b83811115620003d7576000848401525b50505050565b60006002820490506001821680620003f657607f821691505b602082108114156200040d576200040c62000413565b5b50919050565b7f4e487b7100000000000000000000000000000000000000000000000000000000600052602260045260246000fd5b7f4e487b7100000000000000000000000000000000000000000000000000000000600052604160045260246000fd5b6200047c8162000373565b81146200048857600080fd5b50565b615bd2806200049b6000396000f3fe60806040523480156200001157600080fd5b5060043610620001b45760003560e01c80638a6655d611620000f3578063a65311ad11620000a5578063ddfb444f116200007b578063ddfb444f1462000570578063e0fd77b214620005a7578063e8c2fe1d14620005c7578063fb799c2f14620005e757620001b4565b8063a65311ad14620004f8578063bf718cd8146200052e578063dab9743d146200055057620001b4565b80638a6655d614620003ec5780638da5cb5b146200040c5780638e18249a146200042e57806395d89b41146200046457806399b956a01462000486578063a4f8d82b14620004bf57620001b4565b80634b0bddd2116200016b5780635897591911620001415780635897591914620003375780636e92c2ad14620003595780636fe2ff3114620003945780637ffa96bf14620003ca57620001b4565b80634b0bddd214620002bf5780635092e68a14620002df5780635163b191146200030157620001b4565b806303c7881a14620001b957806306fdde0314620001ef5780630ec6d58a14620002115780630f350d34146200024757806324574d4d14620002675780632ce4b3a11462000289575b600080fd5b620001d76004803603810190620001d19190620022ee565b62000622565b604051620001e6919062002b6d565b60405180910390f35b620001f962000680565b604051620002089190620029c7565b60405180910390f35b6200022f6004803603810190620002299190620020dc565b62000716565b6040516200023e9190620029aa565b60405180910390f35b6200026560048036038101906200025f9190620020dc565b62000736565b005b620002716200080b565b60405162000280919062002b6d565b60405180910390f35b620002a76004803603810190620002a1919062002175565b62000811565b604051620002b6919062002b6d565b60405180910390f35b620002dd6004803603810190620002d7919062002134565b62000843565b005b620002e96200092f565b604051620002f8919062002871565b60405180910390f35b6200031f6004803603810190620003199190620020dc565b62000955565b6040516200032e919062002986565b60405180910390f35b62000341620009ee565b60405162000350919062002b6d565b60405180910390f35b62000377600480360381019062000371919062002296565b620009f4565b6040516200038b9695949392919062002a26565b60405180910390f35b620003b26004803603810190620003ac919062002296565b62000b6e565b604051620003c1919062002871565b60405180910390f35b620003d462000ba1565b604051620003e3919062002871565b60405180910390f35b6200040a6004803603810190620004049190620023ca565b62000bc7565b005b6200041662001046565b60405162000425919062002871565b60405180910390f35b6200044c600480360381019062000446919062002389565b6200106a565b6040516200045b919062002b6d565b60405180910390f35b6200046e6200109c565b6040516200047d9190620029c7565b60405180910390f35b620004a460048036038101906200049e9190620020dc565b62001132565b604051620004b6949392919062002bb7565b60405180910390f35b620004dd6004803603810190620004d7919062002296565b620011f2565b604051620004ef949392919062002bb7565b60405180910390f35b62000516600480360381019062000510919062002296565b620012b2565b60405162000525919062002871565b60405180910390f35b62000538620012e5565b60405162000547919062002962565b60405180910390f35b6200056e60048036038101906200056891906200232f565b620014b3565b005b6200058e600480360381019062000588919062002175565b620017db565b6040516200059e92919062002b8a565b60405180910390f35b620005c56004803603810190620005bf9190620021e2565b6200181d565b005b620005e56004803603810190620005df919062002296565b62001b21565b005b620006056004803603810190620005ff919062002296565b62001bd0565b604051620006199695949392919062002a26565b60405180910390f35b6000600960008373ffffffffffffffffffffffffffffffffffffffff1673ffffffffffffffffffffffffffffffffffffffff168152602001908152602001600020600401600084815260200190815260200160002054905092915050565b600380546200068f9062002eaa565b80601f0160208091040260200160405190810160405280929190818152602001828054620006bd9062002eaa565b80156200070e5780601f10620006e2576101008083540402835291602001916200070e565b820191906000526020600020905b815481529060010190602001808311620006f057829003601f168201915b505050505081565b60086020528060005260406000206000915054906101000a900460ff1681565b60008054906101000a900473ffffffffffffffffffffffffffffffffffffffff1673ffffffffffffffffffffffffffffffffffffffff163373ffffffffffffffffffffffffffffffffffffffff1614620007c7576040517f08c379a0000000000000000000000000000000000000000000000000000000008152600401620007be9062002ac3565b60405180910390fd5b80600160006101000a81548173ffffffffffffffffffffffffffffffffffffffff021916908373ffffffffffffffffffffffffffffffffffffffff16021790555050565b60065481565b600f60205281600052604060002081815481106200082e57600080fd5b90600052602060002001600091509150505481565b60008054906101000a900473ffffffffffffffffffffffffffffffffffffffff1673ffffffffffffffffffffffffffffffffffffffff163373ffffffffffffffffffffffffffffffffffffffff1614620008d4576040517f08c379a0000000000000000000000000000000000000000000000000000000008152600401620008cb9062002ac3565b60405180910390fd5b80600860008473ffffffffffffffffffffffffffffffffffffffff1673ffffffffffffffffffffffffffffffffffffffff16815260200190815260200160002060006101000a81548160ff0219169083151502179055505050565b600160009054906101000a900473ffffffffffffffffffffffffffffffffffffffff1681565b6060600f60008373ffffffffffffffffffffffffffffffffffffffff1673ffffffffffffffffffffffffffffffffffffffff168152602001908152602001600020805480602002602001604051908101604052809291908181526020018280548015620009e257602002820191906000526020600020905b815481526020019060010190808311620009cd575b50505050509050919050565b60055481565b6007818154811062000a0557600080fd5b906000526020600020906006020160009150905080600001805462000a2a9062002eaa565b80601f016020809104026020016040519081016040528092919081815260200182805462000a589062002eaa565b801562000aa95780601f1062000a7d5761010080835404028352916020019162000aa9565b820191906000526020600020905b81548152906001019060200180831162000a8b57829003601f168201915b50505050509080600101805462000ac09062002eaa565b80601f016020809104026020016040519081016040528092919081815260200182805462000aee9062002eaa565b801562000b3f5780601f1062000b135761010080835404028352916020019162000b3f565b820191906000526020600020905b81548152906001019060200180831162000b2157829003601f168201915b5050505050908060020154908060030154908060040154908060050160009054906101000a900460ff16905086565b600a6020528060005260406000206000915054906101000a900473ffffffffffffffffffffffffffffffffffffffff1681565b600260009054906101000a900473ffffffffffffffffffffffffffffffffffffffff1681565b6000600960003373ffffffffffffffffffffffffffffffffffffffff1673ffffffffffffffffffffffffffffffffffffffff16815260200190815260200160002060000154141562000c50576040517f08c379a000000000000000000000000000000000000000000000000000000000815260040162000c479062002b29565b60405180910390fd5b600c60008481526020019081526020016000206002015482111562000cac576040517f08c379a000000000000000000000000000000000000000000000000000000000815260040162000ca39062002aa1565b60405180910390fd5b6001151562000cbb3362001d39565b15151462000d00576040517f08c379a000000000000000000000000000000000000000000000000000000000815260040162000cf79062002b07565b60405180910390fd5b6000600160009054906101000a900473ffffffffffffffffffffffffffffffffffffffff16905060008173ffffffffffffffffffffffffffffffffffffffff166370a08231336040518263ffffffff1660e01b815260040162000d64919062002871565b60206040518083038186803b15801562000d7d57600080fd5b505afa15801562000d92573d6000803e3d6000fd5b505050506040513d601f19601f8201168201806040525081019062000db89190620022c2565b1162000dfb576040517f08c379a000000000000000000000000000000000000000000000000000000000815260040162000df29062002ae5565b60405180910390fd5b8073ffffffffffffffffffffffffffffffffffffffff166323b872dd3330856040518463ffffffff1660e01b815260040162000e3a939291906200288e565b602060405180830381600087803b15801562000e5557600080fd5b505af115801562000e6a573d6000803e3d6000fd5b505050506040513d601f19601f8201168201806040525081019062000e909190620021b6565b50600060405180604001604052808681526020018581525090506103e8838562000ebb919062002da6565b62000ec7919062002d6e565b600960003373ffffffffffffffffffffffffffffffffffffffff1673ffffffffffffffffffffffffffffffffffffffff168152602001908152602001600020600401600087815260200190815260200160002081905550600f60003373ffffffffffffffffffffffffffffffffffffffff1673ffffffffffffffffffffffffffffffffffffffff168152602001908152602001600020859080600181540180825580915050600190039060005260206000200160009091909190915055601060003373ffffffffffffffffffffffffffffffffffffffff1673ffffffffffffffffffffffffffffffffffffffff168152602001908152602001600020819080600181540180825580915050600190039060005260206000209060020201600090919091909150600082015181600001556020820151816001015550507ea6a07a12abd0e14095075702619f674b917829771316489ee2b35851533ba5338686604051620010379392919062002925565b60405180910390a15050505050565b60008054906101000a900473ffffffffffffffffffffffffffffffffffffffff1681565b600e60205281600052604060002081815481106200108757600080fd5b90600052602060002001600091509150505481565b60048054620010ab9062002eaa565b80601f0160208091040260200160405190810160405280929190818152602001828054620010d99062002eaa565b80156200112a5780601f10620010fe576101008083540402835291602001916200112a565b820191906000526020600020905b8154815290600101906020018083116200110c57829003601f168201915b505050505081565b6009602052806000526040600020600091509050806000015490806001015490806002015490806003018054620011699062002eaa565b80601f0160208091040260200160405190810160405280929190818152602001828054620011979062002eaa565b8015620011e85780601f10620011bc57610100808354040283529160200191620011e8565b820191906000526020600020905b815481529060010190602001808311620011ca57829003601f168201915b5050505050905084565b600b602052806000526040600020600091509050806000015490806001015490806002015490806003018054620012299062002eaa565b80601f0160208091040260200160405190810160405280929190818152602001828054620012579062002eaa565b8015620012a85780601f106200127c57610100808354040283529160200191620012a8565b820191906000526020600020905b8154815290600101906020018083116200128a57829003601f168201915b5050505050905084565b600d6020528060005260406000206000915054906101000a900473ffffffffffffffffffffffffffffffffffffffff1681565b60606007805480602002602001604051908101604052809291908181526020016000905b82821015620014aa57838290600052602060002090600602016040518060c00160405290816000820180546200133f9062002eaa565b80601f01602080910402602001604051908101604052809291908181526020018280546200136d9062002eaa565b8015620013be5780601f106200139257610100808354040283529160200191620013be565b820191906000526020600020905b815481529060010190602001808311620013a057829003601f168201915b50505050508152602001600182018054620013d99062002eaa565b80601f0160208091040260200160405190810160405280929190818152602001828054620014079062002eaa565b8015620014585780601f106200142c5761010080835404028352916020019162001458565b820191906000526020600020905b8154815290600101906020018083116200143a57829003601f168201915b505050505081526020016002820154815260200160038201548152602001600482015481526020016005820160009054906101000a900460ff1615151515815250508152602001906001019062001309565b50505050905090565b600160056000828254620014c8919062002d11565b925050819055506000600260009054906101000a900473ffffffffffffffffffffffffffffffffffffffff1690508073ffffffffffffffffffffffffffffffffffffffff16635fdb72cb336005546040518363ffffffff1660e01b815260040162001535929190620028f8565b600060405180830381600087803b1580156200155057600080fd5b505af115801562001565573d6000803e3d6000fd5b505050506000600160009054906101000a900473ffffffffffffffffffffffffffffffffffffffff1690508073ffffffffffffffffffffffffffffffffffffffff1663a9059cbb33683635c9adc5dea000006040518363ffffffff1660e01b8152600401620015d6929190620028cb565b602060405180830381600087803b158015620015f157600080fd5b505af115801562001606573d6000803e3d6000fd5b505050506040513d601f19601f820116820180604052508101906200162c9190620021b6565b5033600a6000600554815260200190815260200160002060006101000a81548173ffffffffffffffffffffffffffffffffffffffff021916908373ffffffffffffffffffffffffffffffffffffffff160217905550600554600960003373ffffffffffffffffffffffffffffffffffffffff1673ffffffffffffffffffffffffffffffffffffffff1681526020019081526020016000206000018190555083600960003373ffffffffffffffffffffffffffffffffffffffff1673ffffffffffffffffffffffffffffffffffffffff1681526020019081526020016000206002018190555082600960003373ffffffffffffffffffffffffffffffffffffffff1673ffffffffffffffffffffffffffffffffffffffff16815260200190815260200160002060030190805190602001906200176992919062001e8a565b50600554600b600060055481526020019081526020016000206000018190555083600b600060055481526020019081526020016000206002018190555082600b600060055481526020019081526020016000206003019080519060200190620017d492919062001e8a565b5050505050565b60106020528160005260406000208181548110620017f857600080fd5b9060005260206000209060020201600091509150508060000154908060010154905082565b60011515600860003373ffffffffffffffffffffffffffffffffffffffff1673ffffffffffffffffffffffffffffffffffffffff16815260200190815260200160002060009054906101000a900460ff16151514620018b3576040517f08c379a0000000000000000000000000000000000000000000000000000000008152600401620018aa9062002b4b565b60405180910390fd5b600160066000828254620018c8919062002d11565b92505081905550600085604051602001620018e49190620029c7565b6040516020818303038152906040528051906020012085876040516200190a9062001f1b565b62001917929190620029eb565b8190604051809103906000f590508015801562001938573d6000803e3d6000fd5b50905080600d6000600654815260200190815260200160002060006101000a81548173ffffffffffffffffffffffffffffffffffffffff021916908373ffffffffffffffffffffffffffffffffffffffff16021790555085600c600060065481526020019081526020016000206000019080519060200190620019bd92919062001e8a565b5084600c600060065481526020019081526020016000206001019080519060200190620019ec92919062001e8a565b5083600c600060065481526020019081526020016000206002018190555082600c600060065481526020019081526020016000206003018190555081600c60006006548152602001908152602001600020600401819055506007600c600060065481526020019081526020016000209080600181540180825580915050600190039060005260206000209060060201600090919091909150600082018160000190805462001a9a9062002eaa565b62001aa792919062001f29565b50600182018160010190805462001abe9062002eaa565b62001acb92919062001f29565b506002820154816002015560038201548160030155600482015481600401556005820160009054906101000a900460ff168160050160006101000a81548160ff0219169083151502179055505050505050505050565b6000600d600083815260200190815260200160002060009054906101000a900473ffffffffffffffffffffffffffffffffffffffff1690508073ffffffffffffffffffffffffffffffffffffffff16635fdb72cb336005546040518363ffffffff1660e01b815260040162001b98929190620028f8565b600060405180830381600087803b15801562001bb357600080fd5b505af115801562001bc8573d6000803e3d6000fd5b505050505050565b600c60205280600052604060002060009150905080600001805462001bf59062002eaa565b80601f016020809104026020016040519081016040528092919081815260200182805462001c239062002eaa565b801562001c745780601f1062001c485761010080835404028352916020019162001c74565b820191906000526020600020905b81548152906001019060200180831162001c5657829003601f168201915b50505050509080600101805462001c8b9062002eaa565b80601f016020809104026020016040519081016040528092919081815260200182805462001cb99062002eaa565b801562001d0a5780601f1062001cde5761010080835404028352916020019162001d0a565b820191906000526020600020905b81548152906001019060200180831162001cec57829003601f168201915b5050505050908060020154908060030154908060040154908060050160009054906101000a900460ff16905086565b600080600960008473ffffffffffffffffffffffffffffffffffffffff1673ffffffffffffffffffffffffffffffffffffffff1681526020019081526020016000206000015490506000600260009054906101000a900473ffffffffffffffffffffffffffffffffffffffff16905060008173ffffffffffffffffffffffffffffffffffffffff16636352211e846040518263ffffffff1660e01b815260040162001de5919062002b6d565b60206040518083038186803b15801562001dfe57600080fd5b505afa15801562001e13573d6000803e3d6000fd5b505050506040513d601f19601f8201168201806040525081019062001e39919062002108565b90508473ffffffffffffffffffffffffffffffffffffffff168173ffffffffffffffffffffffffffffffffffffffff16141562001e7d576001935050505062001e85565b600093505050505b919050565b82805462001e989062002eaa565b90600052602060002090601f01602090048101928262001ebc576000855562001f08565b82601f1062001ed757805160ff191683800117855562001f08565b8280016001018555821562001f08579182015b8281111562001f0757825182559160200191906001019062001eea565b5b50905062001f17919062001fc1565b5090565b612ba18062002ffc83390190565b82805462001f379062002eaa565b90600052602060002090601f01602090048101928262001f5b576000855562001fae565b82601f1062001f6e578054855562001fae565b8280016001018555821562001fae57600052602060002091601f016020900482015b8281111562001fad57825482559160010191906001019062001f90565b5b50905062001fbd919062001fc1565b5090565b5b8082111562001fdc57600081600090555060010162001fc2565b5090565b600062001ff762001ff18462002c3f565b62002c0b565b9050828152602081018484840111156200201057600080fd5b6200201d84828562002e65565b509392505050565b600081359050620020368162002fad565b92915050565b6000815190506200204d8162002fad565b92915050565b600081359050620020648162002fc7565b92915050565b6000815190506200207b8162002fc7565b92915050565b600082601f8301126200209357600080fd5b8135620020a584826020860162001fe0565b91505092915050565b600081359050620020bf8162002fe1565b92915050565b600081519050620020d68162002fe1565b92915050565b600060208284031215620020ef57600080fd5b6000620020ff8482850162002025565b91505092915050565b6000602082840312156200211b57600080fd5b60006200212b848285016200203c565b91505092915050565b600080604083850312156200214857600080fd5b6000620021588582860162002025565b92505060206200216b8582860162002053565b9150509250929050565b600080604083850312156200218957600080fd5b6000620021998582860162002025565b9250506020620021ac85828601620020ae565b9150509250929050565b600060208284031215620021c957600080fd5b6000620021d9848285016200206a565b91505092915050565b600080600080600060a08688031215620021fb57600080fd5b600086013567ffffffffffffffff8111156200221657600080fd5b620022248882890162002081565b955050602086013567ffffffffffffffff8111156200224257600080fd5b620022508882890162002081565b94505060406200226388828901620020ae565b93505060606200227688828901620020ae565b92505060806200228988828901620020ae565b9150509295509295909350565b600060208284031215620022a957600080fd5b6000620022b984828501620020ae565b91505092915050565b600060208284031215620022d557600080fd5b6000620022e584828501620020c5565b91505092915050565b600080604083850312156200230257600080fd5b60006200231285828601620020ae565b9250506020620023258582860162002025565b9150509250929050565b600080604083850312156200234357600080fd5b60006200235385828601620020ae565b925050602083013567ffffffffffffffff8111156200237157600080fd5b6200237f8582860162002081565b9150509250929050565b600080604083850312156200239d57600080fd5b6000620023ad85828601620020ae565b9250506020620023c085828601620020ae565b9150509250929050565b600080600060608486031215620023e057600080fd5b6000620023f086828701620020ae565b93505060206200240386828701620020ae565b92505060406200241686828701620020ae565b9150509250925092565b60006200242e8383620027b3565b905092915050565b60006200244483836200284f565b60208301905092915050565b6200245b8162002e07565b82525050565b60006200246e8262002c92565b6200247a818562002ccd565b9350836020820285016200248e8562002c72565b8060005b85811015620024d05784840389528151620024ae858262002420565b9450620024bb8362002cb3565b925060208a0199505060018101905062002492565b50829750879550505050505092915050565b6000620024ef8262002c9d565b620024fb818562002cde565b9350620025088362002c82565b8060005b838110156200253f57815162002523888262002436565b9750620025308362002cc0565b9250506001810190506200250c565b5085935050505092915050565b620025578162002e1b565b82525050565b620025688162002e1b565b82525050565b620025798162002e51565b82525050565b60006200258c8262002ca8565b62002598818562002cef565b9350620025aa81856020860162002e74565b620025b58162002f9c565b840191505092915050565b6000620025cd8262002ca8565b620025d9818562002d00565b9350620025eb81856020860162002e74565b620025f68162002f9c565b840191505092915050565b60006200261060258362002d00565b91507f5375626a65637420726174652063616e6e6f74206265206d6f7265207468616e60008301527f20726174650000000000000000000000000000000000000000000000000000006020830152604082019050919050565b600062002678600a8362002d00565b91507f4f6e6c79206f776e6572000000000000000000000000000000000000000000006000830152602082019050919050565b6000620026ba60128362002d00565b91507f4f6e6c6520746f6b656e73206f776e65727300000000000000000000000000006000830152602082019050919050565b6000620026fc600f8362002d00565b91507f436865636b204e4654206f776e657200000000000000000000000000000000006000830152602082019050919050565b60006200273e60148362002d00565b91507f4e6f7420726567697374657265642075736572210000000000000000000000006000830152602082019050919050565b600062002780600b8362002d00565b91507f4f6e6c792061646d696e210000000000000000000000000000000000000000006000830152602082019050919050565b600060c0830160008301518482036000860152620027d282826200257f565b91505060208301518482036020860152620027ee82826200257f565b91505060408301516200280560408601826200284f565b5060608301516200281a60608601826200284f565b5060808301516200282f60808601826200284f565b5060a08301516200284460a08601826200254c565b508091505092915050565b6200285a8162002e47565b82525050565b6200286b8162002e47565b82525050565b600060208201905062002888600083018462002450565b92915050565b6000606082019050620028a5600083018662002450565b620028b4602083018562002450565b620028c3604083018462002860565b949350505050565b6000604082019050620028e2600083018562002450565b620028f160208301846200256e565b9392505050565b60006040820190506200290f600083018562002450565b6200291e602083018462002860565b9392505050565b60006060820190506200293c600083018662002450565b6200294b602083018562002860565b6200295a604083018462002860565b949350505050565b600060208201905081810360008301526200297e818462002461565b905092915050565b60006020820190508181036000830152620029a28184620024e2565b905092915050565b6000602082019050620029c160008301846200255d565b92915050565b60006020820190508181036000830152620029e38184620025c0565b905092915050565b6000604082019050818103600083015262002a078185620025c0565b9050818103602083015262002a1d8184620025c0565b90509392505050565b600060c082019050818103600083015262002a428189620025c0565b9050818103602083015262002a588188620025c0565b905062002a69604083018762002860565b62002a78606083018662002860565b62002a87608083018562002860565b62002a9660a08301846200255d565b979650505050505050565b6000602082019050818103600083015262002abc8162002601565b9050919050565b6000602082019050818103600083015262002ade8162002669565b9050919050565b6000602082019050818103600083015262002b0081620026ab565b9050919050565b6000602082019050818103600083015262002b2281620026ed565b9050919050565b6000602082019050818103600083015262002b44816200272f565b9050919050565b6000602082019050818103600083015262002b668162002771565b9050919050565b600060208201905062002b84600083018462002860565b92915050565b600060408201905062002ba1600083018562002860565b62002bb0602083018462002860565b9392505050565b600060808201905062002bce600083018762002860565b62002bdd602083018662002860565b62002bec604083018562002860565b818103606083015262002c008184620025c0565b905095945050505050565b6000604051905081810181811067ffffffffffffffff8211171562002c355762002c3462002f6d565b5b8060405250919050565b600067ffffffffffffffff82111562002c5d5762002c5c62002f6d565b5b601f19601f8301169050602081019050919050565b6000819050602082019050919050565b6000819050602082019050919050565b600081519050919050565b600081519050919050565b600081519050919050565b6000602082019050919050565b6000602082019050919050565b600082825260208201905092915050565b600082825260208201905092915050565b600082825260208201905092915050565b600082825260208201905092915050565b600062002d1e8262002e47565b915062002d2b8362002e47565b9250827fffffffffffffffffffffffffffffffffffffffffffffffffffffffffffffffff0382111562002d635762002d6262002ee0565b5b828201905092915050565b600062002d7b8262002e47565b915062002d888362002e47565b92508262002d9b5762002d9a62002f0f565b5b828204905092915050565b600062002db38262002e47565b915062002dc08362002e47565b9250817fffffffffffffffffffffffffffffffffffffffffffffffffffffffffffffffff048311821515161562002dfc5762002dfb62002ee0565b5b828202905092915050565b600062002e148262002e27565b9050919050565b60008115159050919050565b600073ffffffffffffffffffffffffffffffffffffffff82169050919050565b6000819050919050565b600062002e5e8262002e47565b9050919050565b82818337600083830152505050565b60005b8381101562002e9457808201518184015260208101905062002e77565b8381111562002ea4576000848401525b50505050565b6000600282049050600182168062002ec357607f821691505b6020821081141562002eda5762002ed962002f3e565b5b50919050565b7f4e487b7100000000000000000000000000000000000000000000000000000000600052601160045260246000fd5b7f4e487b7100000000000000000000000000000000000000000000000000000000600052601260045260246000fd5b7f4e487b7100000000000000000000000000000000000000000000000000000000600052602260045260246000fd5b7f4e487b7100000000000000000000000000000000000000000000000000000000600052604160045260246000fd5b6000601f19601f8301169050919050565b62002fb88162002e07565b811462002fc457600080fd5b50565b62002fd28162002e1b565b811462002fde57600080fd5b50565b62002fec8162002e47565b811462002ff857600080fd5b5056fe60806040523480156200001157600080fd5b5060405162002ba138038062002ba18339818101604052810190620000379190620001d8565b8181816000908051906020019062000051929190620000b6565b5080600190805190602001906200006a929190620000b6565b50505033600760006101000a81548173ffffffffffffffffffffffffffffffffffffffff021916908373ffffffffffffffffffffffffffffffffffffffff16021790555050506200037c565b828054620000c490620002e8565b90600052602060002090601f016020900481019282620000e8576000855562000134565b82601f106200010357805160ff191683800117855562000134565b8280016001018555821562000134579182015b828111156200013357825182559160200191906001019062000116565b5b50905062000143919062000147565b5090565b5b808211156200016257600081600090555060010162000148565b5090565b60006200017d62000177846200027f565b6200024b565b9050828152602081018484840111156200019657600080fd5b620001a3848285620002b2565b509392505050565b600082601f830112620001bd57600080fd5b8151620001cf84826020860162000166565b91505092915050565b60008060408385031215620001ec57600080fd5b600083015167ffffffffffffffff8111156200020757600080fd5b6200021585828601620001ab565b925050602083015167ffffffffffffffff8111156200023357600080fd5b6200024185828601620001ab565b9150509250929050565b6000604051905081810181811067ffffffffffffffff821117156200027557620002746200034d565b5b8060405250919050565b600067ffffffffffffffff8211156200029d576200029c6200034d565b5b601f19601f8301169050602081019050919050565b60005b83811015620002d2578082015181840152602081019050620002b5565b83811115620002e2576000848401525b50505050565b600060028204905060018216806200030157607f821691505b602082108114156200031857620003176200031e565b5b50919050565b7f4e487b7100000000000000000000000000000000000000000000000000000000600052602260045260246000fd5b7f4e487b7100000000000000000000000000000000000000000000000000000000600052604160045260246000fd5b612815806200038c6000396000f3fe608060405234801561001057600080fd5b506004361061010b5760003560e01c806370a08231116100a2578063b88d4fde11610071578063b88d4fde146102b6578063c56e1375146102d2578063c87b56dd146102ee578063d2f6f67d1461031e578063e985e9c51461033c5761010b565b806370a082311461022e5780638da5cb5b1461025e57806395d89b411461027c578063a22cb4651461029a5761010b565b806323b872dd116100de57806323b872dd146101aa57806342842e0e146101c65780635fdb72cb146101e25780636352211e146101fe5761010b565b806301ffc9a71461011057806306fdde0314610140578063081812fc1461015e578063095ea7b31461018e575b600080fd5b61012a60048036038101906101259190611a85565b61036c565b60405161013791906121bd565b60405180910390f35b61014861044e565b60405161015591906121d8565b60405180910390f35b61017860048036038101906101739190611ad7565b6104e0565b6040516101859190612156565b60405180910390f35b6101a860048036038101906101a39190611a49565b610565565b005b6101c460048036038101906101bf9190611943565b61067d565b005b6101e060048036038101906101db9190611943565b6106dd565b005b6101fc60048036038101906101f79190611a49565b6106fd565b005b61021860048036038101906102139190611ad7565b61079b565b6040516102259190612156565b60405180910390f35b610248600480360381019061024391906118de565b61084d565b60405161025591906123da565b60405180910390f35b610266610905565b6040516102739190612156565b60405180910390f35b61028461092b565b60405161029191906121d8565b60405180910390f35b6102b460048036038101906102af9190611a0d565b6109bd565b005b6102d060048036038101906102cb9190611992565b610b3e565b005b6102ec60048036038101906102e791906118de565b610ba0565b005b61030860048036038101906103039190611ad7565b610c3e565b60405161031591906121d8565b60405180910390f35b610326610ce5565b6040516103339190612156565b60405180910390f35b61035660048036038101906103519190611907565b610d0b565b60405161036391906121bd565b60405180910390f35b60007f80ac58cd000000000000000000000000000000000000000000000000000000007bffffffffffffffffffffffffffffffffffffffffffffffffffffffff1916827bffffffffffffffffffffffffffffffffffffffffffffffffffffffff1916148061043757507f5b5e139f000000000000000000000000000000000000000000000000000000007bffffffffffffffffffffffffffffffffffffffffffffffffffffffff1916827bffffffffffffffffffffffffffffffffffffffffffffffffffffffff1916145b80610447575061044682610d9f565b5b9050919050565b60606000805461045d9061260a565b80601f01602080910402602001604051908101604052809291908181526020018280546104899061260a565b80156104d65780601f106104ab576101008083540402835291602001916104d6565b820191906000526020600020905b8154815290600101906020018083116104b957829003601f168201915b5050505050905090565b60006104eb82610e09565b61052a576040517f08c379a00000000000000000000000000000000000000000000000000000000081526004016105219061233a565b60405180910390fd5b6004600083815260200190815260200160002060009054906101000a900473ffffffffffffffffffffffffffffffffffffffff169050919050565b60006105708261079b565b90508073ffffffffffffffffffffffffffffffffffffffff168373ffffffffffffffffffffffffffffffffffffffff1614156105e1576040517f08c379a00000000000000000000000000000000000000000000000000000000081526004016105d89061239a565b60405180910390fd5b8073ffffffffffffffffffffffffffffffffffffffff16610600610e75565b73ffffffffffffffffffffffffffffffffffffffff16148061062f575061062e81610629610e75565b610d0b565b5b61066e576040517f08c379a0000000000000000000000000000000000000000000000000000000008152600401610665906122ba565b60405180910390fd5b6106788383610e7d565b505050565b61068e610688610e75565b82610f36565b6106cd576040517f08c379a00000000000000000000000000000000000000000000000000000000081526004016106c4906123ba565b60405180910390fd5b6106d8838383611014565b505050565b6106f883838360405180602001604052806000815250610b3e565b505050565b3373ffffffffffffffffffffffffffffffffffffffff16600660009054906101000a900473ffffffffffffffffffffffffffffffffffffffff1673ffffffffffffffffffffffffffffffffffffffff161461078d576040517f08c379a00000000000000000000000000000000000000000000000000000000081526004016107849061221a565b60405180910390fd5b6107978282611270565b5050565b6000806002600084815260200190815260200160002060009054906101000a900473ffffffffffffffffffffffffffffffffffffffff169050600073ffffffffffffffffffffffffffffffffffffffff168173ffffffffffffffffffffffffffffffffffffffff161415610844576040517f08c379a000000000000000000000000000000000000000000000000000000000815260040161083b906122fa565b60405180910390fd5b80915050919050565b60008073ffffffffffffffffffffffffffffffffffffffff168273ffffffffffffffffffffffffffffffffffffffff1614156108be576040517f08c379a00000000000000000000000000000000000000000000000000000000081526004016108b5906122da565b60405180910390fd5b600360008373ffffffffffffffffffffffffffffffffffffffff1673ffffffffffffffffffffffffffffffffffffffff168152602001908152602001600020549050919050565b600760009054906101000a900473ffffffffffffffffffffffffffffffffffffffff1681565b60606001805461093a9061260a565b80601f01602080910402602001604051908101604052809291908181526020018280546109669061260a565b80156109b35780601f10610988576101008083540402835291602001916109b3565b820191906000526020600020905b81548152906001019060200180831161099657829003601f168201915b5050505050905090565b6109c5610e75565b73ffffffffffffffffffffffffffffffffffffffff168273ffffffffffffffffffffffffffffffffffffffff161415610a33576040517f08c379a0000000000000000000000000000000000000000000000000000000008152600401610a2a9061227a565b60405180910390fd5b8060056000610a40610e75565b73ffffffffffffffffffffffffffffffffffffffff1673ffffffffffffffffffffffffffffffffffffffff16815260200190815260200160002060008473ffffffffffffffffffffffffffffffffffffffff1673ffffffffffffffffffffffffffffffffffffffff16815260200190815260200160002060006101000a81548160ff0219169083151502179055508173ffffffffffffffffffffffffffffffffffffffff16610aed610e75565b73ffffffffffffffffffffffffffffffffffffffff167f17307eab39ab6107e8899845ad3d59bd9653f200f220920489ca2b5937696c3183604051610b3291906121bd565b60405180910390a35050565b610b4f610b49610e75565b83610f36565b610b8e576040517f08c379a0000000000000000000000000000000000000000000000000000000008152600401610b85906123ba565b60405180910390fd5b610b9a8484848461143e565b50505050565b3373ffffffffffffffffffffffffffffffffffffffff16600760009054906101000a900473ffffffffffffffffffffffffffffffffffffffff1673ffffffffffffffffffffffffffffffffffffffff1614610bfa57600080fd5b80600660006101000a81548173ffffffffffffffffffffffffffffffffffffffff021916908373ffffffffffffffffffffffffffffffffffffffff16021790555050565b6060610c4982610e09565b610c88576040517f08c379a0000000000000000000000000000000000000000000000000000000008152600401610c7f9061237a565b60405180910390fd5b6000610c9261149a565b90506000815111610cb25760405180602001604052806000815250610cdd565b80610cbc846114b1565b604051602001610ccd929190612132565b6040516020818303038152906040525b915050919050565b600660009054906101000a900473ffffffffffffffffffffffffffffffffffffffff1681565b6000600560008473ffffffffffffffffffffffffffffffffffffffff1673ffffffffffffffffffffffffffffffffffffffff16815260200190815260200160002060008373ffffffffffffffffffffffffffffffffffffffff1673ffffffffffffffffffffffffffffffffffffffff16815260200190815260200160002060009054906101000a900460ff16905092915050565b60007f01ffc9a7000000000000000000000000000000000000000000000000000000007bffffffffffffffffffffffffffffffffffffffffffffffffffffffff1916827bffffffffffffffffffffffffffffffffffffffffffffffffffffffff1916149050919050565b60008073ffffffffffffffffffffffffffffffffffffffff166002600084815260200190815260200160002060009054906101000a900473ffffffffffffffffffffffffffffffffffffffff1673ffffffffffffffffffffffffffffffffffffffff1614159050919050565b600033905090565b816004600083815260200190815260200160002060006101000a81548173ffffffffffffffffffffffffffffffffffffffff021916908373ffffffffffffffffffffffffffffffffffffffff160217905550808273ffffffffffffffffffffffffffffffffffffffff16610ef08361079b565b73ffffffffffffffffffffffffffffffffffffffff167f8c5be1e5ebec7d5bd14f71427d1e84f3dd0314c0f7b2291e5b200ac8c7c3b92560405160405180910390a45050565b6000610f4182610e09565b610f80576040517f08c379a0000000000000000000000000000000000000000000000000000000008152600401610f779061229a565b60405180910390fd5b6000610f8b8361079b565b90508073ffffffffffffffffffffffffffffffffffffffff168473ffffffffffffffffffffffffffffffffffffffff161480610ffa57508373ffffffffffffffffffffffffffffffffffffffff16610fe2846104e0565b73ffffffffffffffffffffffffffffffffffffffff16145b8061100b575061100a8185610d0b565b5b91505092915050565b8273ffffffffffffffffffffffffffffffffffffffff166110348261079b565b73ffffffffffffffffffffffffffffffffffffffff161461108a576040517f08c379a00000000000000000000000000000000000000000000000000000000081526004016110819061235a565b60405180910390fd5b600073ffffffffffffffffffffffffffffffffffffffff168273ffffffffffffffffffffffffffffffffffffffff1614156110fa576040517f08c379a00000000000000000000000000000000000000000000000000000000081526004016110f19061225a565b60405180910390fd5b61110583838361165e565b611110600082610e7d565b6001600360008573ffffffffffffffffffffffffffffffffffffffff1673ffffffffffffffffffffffffffffffffffffffff16815260200190815260200160002060008282546111609190612520565b925050819055506001600360008473ffffffffffffffffffffffffffffffffffffffff1673ffffffffffffffffffffffffffffffffffffffff16815260200190815260200160002060008282546111b79190612499565b92505081905550816002600083815260200190815260200160002060006101000a81548173ffffffffffffffffffffffffffffffffffffffff021916908373ffffffffffffffffffffffffffffffffffffffff160217905550808273ffffffffffffffffffffffffffffffffffffffff168473ffffffffffffffffffffffffffffffffffffffff167fddf252ad1be2c89b69c2b068fc378daa952ba7f163c4a11628f55a4df523b3ef60405160405180910390a4505050565b600073ffffffffffffffffffffffffffffffffffffffff168273ffffffffffffffffffffffffffffffffffffffff1614156112e0576040517f08c379a00000000000000000000000000000000000000000000000000000000081526004016112d79061231a565b60405180910390fd5b6112e981610e09565b15611329576040517f08c379a00000000000000000000000000000000000000000000000000000000081526004016113209061223a565b60405180910390fd5b6113356000838361165e565b6001600360008473ffffffffffffffffffffffffffffffffffffffff1673ffffffffffffffffffffffffffffffffffffffff16815260200190815260200160002060008282546113859190612499565b92505081905550816002600083815260200190815260200160002060006101000a81548173ffffffffffffffffffffffffffffffffffffffff021916908373ffffffffffffffffffffffffffffffffffffffff160217905550808273ffffffffffffffffffffffffffffffffffffffff16600073ffffffffffffffffffffffffffffffffffffffff167fddf252ad1be2c89b69c2b068fc378daa952ba7f163c4a11628f55a4df523b3ef60405160405180910390a45050565b611449848484611014565b61145584848484611663565b611494576040517f08c379a000000000000000000000000000000000000000000000000000000000815260040161148b906121fa565b60405180910390fd5b50505050565b606060405180602001604052806000815250905090565b606060008214156114f9576040518060400160405280600181526020017f30000000000000000000000000000000000000000000000000000000000000008152509050611659565b600082905060005b6000821461152b5780806115149061263c565b915050600a8261152491906124ef565b9150611501565b60008167ffffffffffffffff81111561156d577f4e487b7100000000000000000000000000000000000000000000000000000000600052604160045260246000fd5b6040519080825280601f01601f19166020018201604052801561159f5781602001600182028036833780820191505090505b5090505b60008514611652576001826115b89190612520565b9150600a856115c79190612685565b60306115d39190612499565b60f81b81838151811061160f577f4e487b7100000000000000000000000000000000000000000000000000000000600052603260045260246000fd5b60200101907effffffffffffffffffffffffffffffffffffffffffffffffffffffffffffff1916908160001a905350600a8561164b91906124ef565b94506115a3565b8093505050505b919050565b505050565b60006116848473ffffffffffffffffffffffffffffffffffffffff166117fa565b156117ed578373ffffffffffffffffffffffffffffffffffffffff1663150b7a026116ad610e75565b8786866040518563ffffffff1660e01b81526004016116cf9493929190612171565b602060405180830381600087803b1580156116e957600080fd5b505af192505050801561171a57506040513d601f19601f820116820180604052508101906117179190611aae565b60015b61179d573d806000811461174a576040519150601f19603f3d011682016040523d82523d6000602084013e61174f565b606091505b50600081511415611795576040517f08c379a000000000000000000000000000000000000000000000000000000000815260040161178c906121fa565b60405180910390fd5b805181602001fd5b63150b7a0260e01b7bffffffffffffffffffffffffffffffffffffffffffffffffffffffff1916817bffffffffffffffffffffffffffffffffffffffffffffffffffffffff1916149150506117f2565b600190505b949350505050565b600080823b905060008111915050919050565b600061182061181b84612426565b6123f5565b90508281526020810184848401111561183857600080fd5b6118438482856125c8565b509392505050565b60008135905061185a81612783565b92915050565b60008135905061186f8161279a565b92915050565b600081359050611884816127b1565b92915050565b600081519050611899816127b1565b92915050565b600082601f8301126118b057600080fd5b81356118c084826020860161180d565b91505092915050565b6000813590506118d8816127c8565b92915050565b6000602082840312156118f057600080fd5b60006118fe8482850161184b565b91505092915050565b6000806040838503121561191a57600080fd5b60006119288582860161184b565b92505060206119398582860161184b565b9150509250929050565b60008060006060848603121561195857600080fd5b60006119668682870161184b565b93505060206119778682870161184b565b9250506040611988868287016118c9565b9150509250925092565b600080600080608085870312156119a857600080fd5b60006119b68782880161184b565b94505060206119c78782880161184b565b93505060406119d8878288016118c9565b925050606085013567ffffffffffffffff8111156119f557600080fd5b611a018782880161189f565b91505092959194509250565b60008060408385031215611a2057600080fd5b6000611a2e8582860161184b565b9250506020611a3f85828601611860565b9150509250929050565b60008060408385031215611a5c57600080fd5b6000611a6a8582860161184b565b9250506020611a7b858286016118c9565b9150509250929050565b600060208284031215611a9757600080fd5b6000611aa584828501611875565b91505092915050565b600060208284031215611ac057600080fd5b6000611ace8482850161188a565b91505092915050565b600060208284031215611ae957600080fd5b6000611af7848285016118c9565b91505092915050565b611b0981612554565b82525050565b611b1881612566565b82525050565b6000611b2982612456565b611b33818561246c565b9350611b438185602086016125d7565b611b4c81612772565b840191505092915050565b6000611b6282612461565b611b6c818561247d565b9350611b7c8185602086016125d7565b611b8581612772565b840191505092915050565b6000611b9b82612461565b611ba5818561248e565b9350611bb58185602086016125d7565b80840191505092915050565b6000611bce60328361247d565b91507f4552433732313a207472616e7366657220746f206e6f6e20455243373231526560008301527f63656976657220696d706c656d656e74657200000000000000000000000000006020830152604082019050919050565b6000611c3460158361247d565b91507f4f6e6c79206d696e74696e6720636f6e747261637400000000000000000000006000830152602082019050919050565b6000611c74601c8361247d565b91507f4552433732313a20746f6b656e20616c7265616479206d696e746564000000006000830152602082019050919050565b6000611cb460248361247d565b91507f4552433732313a207472616e7366657220746f20746865207a65726f2061646460008301527f72657373000000000000000000000000000000000000000000000000000000006020830152604082019050919050565b6000611d1a60198361247d565b91507f4552433732313a20617070726f766520746f2063616c6c6572000000000000006000830152602082019050919050565b6000611d5a602c8361247d565b91507f4552433732313a206f70657261746f7220717565727920666f72206e6f6e657860008301527f697374656e7420746f6b656e00000000000000000000000000000000000000006020830152604082019050919050565b6000611dc060388361247d565b91507f4552433732313a20617070726f76652063616c6c6572206973206e6f74206f7760008301527f6e6572206e6f7220617070726f76656420666f7220616c6c00000000000000006020830152604082019050919050565b6000611e26602a8361247d565b91507f4552433732313a2062616c616e636520717565727920666f7220746865207a6560008301527f726f2061646472657373000000000000000000000000000000000000000000006020830152604082019050919050565b6000611e8c60298361247d565b91507f4552433732313a206f776e657220717565727920666f72206e6f6e657869737460008301527f656e7420746f6b656e00000000000000000000000000000000000000000000006020830152604082019050919050565b6000611ef260208361247d565b91507f4552433732313a206d696e7420746f20746865207a65726f20616464726573736000830152602082019050919050565b6000611f32602c8361247d565b91507f4552433732313a20617070726f76656420717565727920666f72206e6f6e657860008301527f697374656e7420746f6b656e00000000000000000000000000000000000000006020830152604082019050919050565b6000611f9860298361247d565b91507f4552433732313a207472616e73666572206f6620746f6b656e2074686174206960008301527f73206e6f74206f776e00000000000000000000000000000000000000000000006020830152604082019050919050565b6000611ffe602f8361247d565b91507f4552433732314d657461646174613a2055524920717565727920666f72206e6f60008301527f6e6578697374656e7420746f6b656e00000000000000000000000000000000006020830152604082019050919050565b600061206460218361247d565b91507f4552433732313a20617070726f76616c20746f2063757272656e74206f776e6560008301527f72000000000000000000000000000000000000000000000000000000000000006020830152604082019050919050565b60006120ca60318361247d565b91507f4552433732313a207472616e736665722063616c6c6572206973206e6f74206f60008301527f776e6572206e6f7220617070726f7665640000000000000000000000000000006020830152604082019050919050565b61212c816125be565b82525050565b600061213e8285611b90565b915061214a8284611b90565b91508190509392505050565b600060208201905061216b6000830184611b00565b92915050565b60006080820190506121866000830187611b00565b6121936020830186611b00565b6121a06040830185612123565b81810360608301526121b28184611b1e565b905095945050505050565b60006020820190506121d26000830184611b0f565b92915050565b600060208201905081810360008301526121f28184611b57565b905092915050565b6000602082019050818103600083015261221381611bc1565b9050919050565b6000602082019050818103600083015261223381611c27565b9050919050565b6000602082019050818103600083015261225381611c67565b9050919050565b6000602082019050818103600083015261227381611ca7565b9050919050565b6000602082019050818103600083015261229381611d0d565b9050919050565b600060208201905081810360008301526122b381611d4d565b9050919050565b600060208201905081810360008301526122d381611db3565b9050919050565b600060208201905081810360008301526122f381611e19565b9050919050565b6000602082019050818103600083015261231381611e7f565b9050919050565b6000602082019050818103600083015261233381611ee5565b9050919050565b6000602082019050818103600083015261235381611f25565b9050919050565b6000602082019050818103600083015261237381611f8b565b9050919050565b6000602082019050818103600083015261239381611ff1565b9050919050565b600060208201905081810360008301526123b381612057565b9050919050565b600060208201905081810360008301526123d3816120bd565b9050919050565b60006020820190506123ef6000830184612123565b92915050565b6000604051905081810181811067ffffffffffffffff8211171561241c5761241b612743565b5b8060405250919050565b600067ffffffffffffffff82111561244157612440612743565b5b601f19601f8301169050602081019050919050565b600081519050919050565b600081519050919050565b600082825260208201905092915050565b600082825260208201905092915050565b600081905092915050565b60006124a4826125be565b91506124af836125be565b9250827fffffffffffffffffffffffffffffffffffffffffffffffffffffffffffffffff038211156124e4576124e36126b6565b5b828201905092915050565b60006124fa826125be565b9150612505836125be565b925082612515576125146126e5565b5b828204905092915050565b600061252b826125be565b9150612536836125be565b925082821015612549576125486126b6565b5b828203905092915050565b600061255f8261259e565b9050919050565b60008115159050919050565b60007fffffffff0000000000000000000000000000000000000000000000000000000082169050919050565b600073ffffffffffffffffffffffffffffffffffffffff82169050919050565b6000819050919050565b82818337600083830152505050565b60005b838110156125f55780820151818401526020810190506125da565b83811115612604576000848401525b50505050565b6000600282049050600182168061262257607f821691505b6020821081141561263657612635612714565b5b50919050565b6000612647826125be565b91507fffffffffffffffffffffffffffffffffffffffffffffffffffffffffffffffff82141561267a576126796126b6565b5b600182019050919050565b6000612690826125be565b915061269b836125be565b9250826126ab576126aa6126e5565b5b828206905092915050565b7f4e487b7100000000000000000000000000000000000000000000000000000000600052601160045260246000fd5b7f4e487b7100000000000000000000000000000000000000000000000000000000600052601260045260246000fd5b7f4e487b7100000000000000000000000000000000000000000000000000000000600052602260045260246000fd5b7f4e487b7100000000000000000000000000000000000000000000000000000000600052604160045260246000fd5b6000601f19601f8301169050919050565b61278c81612554565b811461279757600080fd5b50565b6127a381612566565b81146127ae57600080fd5b50565b6127ba81612572565b81146127c557600080fd5b50565b6127d1816125be565b81146127dc57600080fd5b5056fea2646970667358221220a380ce3b37a2b58b7bd1f6f2ba0c7d34f0e0a011f06e1a9640c70a1ebb7164e064736f6c63430008000033a2646970667358221220ce31ba416f4915129c92250fc2ae1aae815b3ed6b0cf9f4f103eee2114ad9a6264736f6c63430008000033",
  "immutableReferences": {},
  "source": "// SPDX-License-Identifier: MIT\npragma solidity >=0.4.22 <0.9.0;\npragma experimental ABIEncoderV2;\n\nimport '@openzeppelin/contracts/token/ERC20/IERC20.sol';\n//import './interfaces/IVERC721.sol';\nimport './VERC721.sol';\n\ncontract Voting {\n    address public owner;\n    address public voteTokenAddress;\n    address public voteNFTTokenAddress;\n    string public name;\n    string public symbol;\n\n    uint public userId;\n    uint public subjectId;\n\n\n    event VoteEvent (address _userAddress, uint _subject, uint _vote);\n\n    struct user {\n        uint id;\n        uint rate;\n        uint age;\n        string nickname;\n\n        mapping(uint => uint) Vote;\n    }\n\n    struct subject {\n        string name;\n        string description;\n        uint rate;\n        uint startDate;\n        uint endDate;\n        bool active;\n    }\n\n    struct subjectAndVote {\n        uint subject;\n        uint vote;\n    }\n\n    struct resultSubject {\n           string _name;\n           string _description;\n           bool _active;\n    }\n\n    subject[] public _result_list;\n\n    constructor(string memory _name, string memory _symbol, address _address, address _nft_address) {\n        name = _name;\n        symbol = _symbol;\n        owner = msg.sender;\n        voteTokenAddress = _address;\n        voteNFTTokenAddress = _nft_address;\n    }\n\n    mapping(address => bool) public Admins;\n    mapping(address => user) public Users;\n    mapping(uint => address) public UserById;\n    mapping(uint => user) public UsersNFT;\n\n    mapping(uint => subject) public Subjects;\n    mapping(uint => address) public CollectionBySubjectID;\n    mapping(uint => uint[]) public SubjectNFTIdList;\n\n    mapping(address => uint[]) public UserSubjects;\n\n    mapping(address => subjectAndVote[]) public SubjectPlusVoteList;\n\n    modifier onlyOwner(){\n        require(msg.sender == owner, \"Only owner\");\n        _;\n    }\n\n    modifier onlyAdmin(){\n        require(Admins[msg.sender] == true, \"Only admin!\");\n        _;\n    }\n\n\n    function setVoteTokenAddress(address _address) public onlyOwner {\n        voteTokenAddress = _address;\n    }\n\n    function setAdmin(address _address, bool _status) public onlyOwner {\n        Admins[_address] = _status;\n    }\n\n    function signup(uint _age, string memory _nickname) public {\n        userId += 1;\n        VERC721 _nft = VERC721(voteNFTTokenAddress);\n        _nft.mintNFTForUser(msg.sender, userId);\n        IERC20 _vote_token = IERC20(voteTokenAddress);\n        _vote_token.transfer(msg.sender, 1000 * 10 ** 18);\n        UserById[userId] = msg.sender;\n        Users[msg.sender].id = userId;\n        Users[msg.sender].age = _age;\n        Users[msg.sender].nickname = _nickname;\n        UsersNFT[userId].id = userId;\n        UsersNFT[userId].age = _age;\n        UsersNFT[userId].nickname = _nickname;\n    }\n\n    function signUpToSubject(uint _subjectId) public {\n        VERC721 _nft = VERC721(CollectionBySubjectID[_subjectId]);\n        _nft.mintNFTForUser(msg.sender, userId);\n        // balanceOf subjectId NFT -> 0 revert\n    }\n\n    function addSubject(string memory _name,\n        string memory _description,\n        uint _rate,\n        uint _startDate,\n        uint _endDate) public onlyAdmin {\n\n        subjectId += 1;\n\n        address _nft = address(new VERC721{salt: keccak256(abi.encode(_name))}(_description, _name));\n        CollectionBySubjectID[subjectId] = _nft;\n\n        Subjects[subjectId].name = _name;\n        Subjects[subjectId].description = _description;\n        Subjects[subjectId].rate = _rate;\n        Subjects[subjectId].startDate = _startDate;\n        Subjects[subjectId].endDate = _endDate;\n        _result_list.push(Subjects[subjectId]);\n    }\n\n    function checkNFTOwner(address _address) internal view returns(bool) {\n        uint _nftId = Users[_address].id;\n        VERC721 _nft = VERC721(voteNFTTokenAddress);\n        address _ownerOfCurrentToken = _nft.ownerOf(_nftId);\n        if (_ownerOfCurrentToken == _address) {\n            return true;\n        } else {\n            return false;\n        }\n    }\n\n    function vote(uint _subjectId, uint _vote, uint _token_amount) public {\n        require(Users[msg.sender].id != 0, \"Not registered user!\");\n        require(_vote <= Subjects[_subjectId].rate, \"Subject rate cannot be more than rate\");\n        require(checkNFTOwner(msg.sender ) == true, \"Check NFT owner\");\n        IERC20 _vote_token = IERC20(voteTokenAddress);\n        require(_vote_token.balanceOf(msg.sender) > 0, \"Onle tokens owners\");\n         // transfer from \n        _vote_token.transferFrom(msg.sender, address(this), _token_amount);\n        \n        subjectAndVote memory currentList = subjectAndVote ({subject: _subjectId, vote: _vote});\n\n        Users[msg.sender].Vote[_subjectId] = _vote * _token_amount / 1000;\n        UserSubjects[msg.sender].push(_subjectId);\n\n        SubjectPlusVoteList[msg.sender].push(currentList);\n\n        emit VoteEvent(msg.sender, _subjectId, _vote);\n    }\n\n    function getUserVote(uint _subjectId, address userAddress) public view returns (uint) {\n        return Users[userAddress].Vote[_subjectId];\n    }\n\n    function getUserSubjects(address _userAddress) public view returns (uint[] memory){\n        return UserSubjects[_userAddress];\n    }\n\n    function getAllSubjects() public view returns(subject[] memory) {\n       return _result_list;                                         \n    }\n\n}",
  "sourcePath": "/Users/pro/Development/blockchain/solidity_course/16Start/solidity/lesson2/contracts/Voting.sol",
  "compiler": {
    "name": "solc",
    "version": "0.8.0+commit.c7dfd78e.Emscripten.clang"
  },
  "schemaVersion": "3.4.3",
  "updatedAt": "2021-11-13T13:50:49.245Z",
  "networkType": "ethereum",
  "devdoc": {
    "kind": "dev",
    "methods": {},
    "version": 1
  },
  "userdoc": {
    "kind": "user",
    "methods": {},
    "version": 1
  }
}