{
  "contractName": "TestContract",
  "abi": [
    {
      "inputs": [],
      "name": "TotalDeposit",
      "outputs": [
        {
          "internalType": "uint256",
          "name": "",
          "type": "uint256"
        }
      ],
      "stateMutability": "view",
      "type": "function",
      "constant": true
    },
    {
      "inputs": [
        {
          "internalType": "address",
          "name": "",
          "type": "address"
        }
      ],
      "name": "Users",
      "outputs": [
        {
          "internalType": "bool",
          "name": "active",
          "type": "bool"
        },
        {
          "internalType": "uint256",
          "name": "deposit",
          "type": "uint256"
        },
        {
          "internalType": "uint256",
          "name": "vote",
          "type": "uint256"
        }
      ],
      "stateMutability": "view",
      "type": "function",
      "constant": true
    },
    {
      "inputs": [
        {
          "internalType": "uint256",
          "name": "_value",
          "type": "uint256"
        }
      ],
      "name": "SetDeposit",
      "outputs": [],
      "stateMutability": "nonpayable",
      "type": "function"
    },
    {
      "inputs": [],
      "name": "Registration",
      "outputs": [],
      "stateMutability": "nonpayable",
      "type": "function"
    },
    {
      "inputs": [
        {
          "internalType": "uint256",
          "name": "_vote",
          "type": "uint256"
        }
      ],
      "name": "AddVote",
      "outputs": [],
      "stateMutability": "nonpayable",
      "type": "function"
    }
  ],
  "bytecode": "0x608060405234801561001057600080fd5b506105d9806100206000396000f3fe608060405234801561001057600080fd5b50600436106100575760003560e01c806386cb363a1461005c578063876cd6b01461007857806399b956a014610096578063a774607f146100c8578063e8a37919146100e4575b600080fd5b61007660048036038101906100719190610301565b6100ee565b005b61008061017c565b60405161008d919061033d565b60405180910390f35b6100b060048036038101906100ab91906103b6565b610182565b6040516100bf939291906103fe565b60405180910390f35b6100e260048036038101906100dd9190610301565b6101b9565b005b6100ec61026a565b005b6000811415610132576040517f08c379a000000000000000000000000000000000000000000000000000000000815260040161012990610492565b60405180910390fd5b80600160003373ffffffffffffffffffffffffffffffffffffffff1673ffffffffffffffffffffffffffffffffffffffff1681526020019081526020016000206003018190555050565b60005481565b60016020528060005260406000206000915090508060000160009054906101000a900460ff16908060010154908060030154905083565b60011515600160003373ffffffffffffffffffffffffffffffffffffffff1673ffffffffffffffffffffffffffffffffffffffff16815260200190815260200160002060000160009054906101000a900460ff1615151461024f576040517f08c379a0000000000000000000000000000000000000000000000000000000008152600401610246906104fe565b60405180910390fd5b80600080828254610260919061054d565b9250508190555050565b60018060003373ffffffffffffffffffffffffffffffffffffffff1673ffffffffffffffffffffffffffffffffffffffff16815260200190815260200160002060000160006101000a81548160ff021916908315150217905550565b600080fd5b6000819050919050565b6102de816102cb565b81146102e957600080fd5b50565b6000813590506102fb816102d5565b92915050565b600060208284031215610317576103166102c6565b5b6000610325848285016102ec565b91505092915050565b610337816102cb565b82525050565b6000602082019050610352600083018461032e565b92915050565b600073ffffffffffffffffffffffffffffffffffffffff82169050919050565b600061038382610358565b9050919050565b61039381610378565b811461039e57600080fd5b50565b6000813590506103b08161038a565b92915050565b6000602082840312156103cc576103cb6102c6565b5b60006103da848285016103a1565b91505092915050565b60008115159050919050565b6103f8816103e3565b82525050565b600060608201905061041360008301866103ef565b610420602083018561032e565b61042d604083018461032e565b949350505050565b600082825260208201905092915050565b7f53657420796f7520726174650000000000000000000000000000000000000000600082015250565b600061047c600c83610435565b915061048782610446565b602082019050919050565b600060208201905081810360008301526104ab8161046f565b9050919050565b7f4e6f742052656769737465726564207573657200000000000000000000000000600082015250565b60006104e8601383610435565b91506104f3826104b2565b602082019050919050565b60006020820190508181036000830152610517816104db565b9050919050565b7f4e487b7100000000000000000000000000000000000000000000000000000000600052601160045260246000fd5b6000610558826102cb565b9150610563836102cb565b9250827fffffffffffffffffffffffffffffffffffffffffffffffffffffffffffffffff038211156105985761059761051e565b5b82820190509291505056fea2646970667358221220875e94112fd2848f68a27e2f31ebadc78e801ac2576f31a72bf752308c18920d64736f6c63430008090033",
  "immutableReferences": {},
  "source": "// SPDX-License-Identifier: MIT\n\npragma solidity 0.8.9;\n\ncontract TestContract {\n\n    uint public TotalDeposit;\n\n    struct sponsor {\n        uint deposit;\n    }\n\n    struct user {\n       bool active;\n       uint deposit;\n       mapping(address => sponsor) Sponsor;\n       uint vote;\n    }\n\n\n    mapping(address => user) public Users;\n\n    // [address(user), address(user)]\n\n    function SetDeposit(uint _value) public {\n        require(Users[msg.sender].active == true, \"Not Registered user\");\n        TotalDeposit += _value;\n    }\n\n    function Registration() public {\n       Users[msg.sender].active = true;\n    }\n \n    function AddVote(uint _vote) public {\n      require(_vote != 0, \"Set you rate\");\n      Users[msg.sender].vote = _vote;\n    }\n\n}",
  "sourcePath": "/Users/pro/Development/blockchain/solidity_course/set_env/test_contract/contracts/TestContract.sol",
  "compiler": {
    "name": "solc",
    "version": "0.8.9+commit.e5eed63a.Emscripten.clang"
  },
  "schemaVersion": "3.4.3",
  "updatedAt": "2021-10-17T13:42:17.775Z",
  "networkType": "ethereum",
  "devdoc": {
    "kind": "dev",
    "methods": {},
    "version": 1
  },
  "userdoc": {
    "kind": "user",
    "methods": {},
    "version": 1
  }
}