{
  "contractName": "TestContract",
  "abi": [
    {
      "inputs": [],
      "name": "deposit",
      "outputs": [
        {
          "internalType": "uint256",
          "name": "",
          "type": "uint256"
        }
      ],
      "stateMutability": "view",
      "type": "function",
      "constant": true
    },
    {
      "inputs": [
        {
          "internalType": "uint256",
          "name": "_value",
          "type": "uint256"
        }
      ],
      "name": "SetDeposit",
      "outputs": [],
      "stateMutability": "nonpayable",
      "type": "function"
    }
  ],
  "bytecode": "0x608060405234801561001057600080fd5b50610133806100206000396000f3fe6080604052348015600f57600080fd5b506004361060325760003560e01c8063a774607f146037578063d0e30db014604f575b600080fd5b604d60048036038101906049919060af565b6069565b005b60556073565b6040516060919060e4565b60405180910390f35b8060008190555050565b60005481565b600080fd5b6000819050919050565b608f81607e565b8114609957600080fd5b50565b60008135905060a9816088565b92915050565b60006020828403121560c25760c16079565b5b600060ce84828501609c565b91505092915050565b60de81607e565b82525050565b600060208201905060f7600083018460d7565b9291505056fea26469706673582212207b007bf59db8261b64fa332b75c2a17d901d7bb2532bb3958650e7b5d0d02b3164736f6c63430008090033",
  "immutableReferences": {},
  "source": "// SPDX-License-Identifier: MIT\n\npragma solidity 0.8.9;\n\ncontract TestContract {\n\n    uint public deposit;\n\n    function SetDeposit(uint _value) public {\n        deposit = _value;\n    }\n\n}",
  "sourcePath": "/Users/pro/Development/blockchain/solidity_course/set_env/test_contract/contracts/TestContract.sol",
  "compiler": {
    "name": "solc",
    "version": "0.8.9+commit.e5eed63a.Emscripten.clang"
  },
  "schemaVersion": "3.4.3",
  "updatedAt": "2021-10-17T11:22:33.577Z",
  "networkType": "ethereum",
  "devdoc": {
    "kind": "dev",
    "methods": {},
    "version": 1
  },
  "userdoc": {
    "kind": "user",
    "methods": {},
    "version": 1
  }
}