{
  "contractName": "Voting",
  "abi": [
    {
      "inputs": [
        {
          "internalType": "string",
          "name": "_name",
          "type": "string"
        },
        {
          "internalType": "string",
          "name": "_symbol",
          "type": "string"
        },
        {
          "internalType": "address",
          "name": "_address",
          "type": "address"
        }
      ],
      "stateMutability": "nonpayable",
      "type": "constructor"
    },
    {
      "anonymous": false,
      "inputs": [
        {
          "indexed": false,
          "internalType": "address",
          "name": "_userAddress",
          "type": "address"
        },
        {
          "indexed": false,
          "internalType": "uint256",
          "name": "_subject",
          "type": "uint256"
        },
        {
          "indexed": false,
          "internalType": "uint256",
          "name": "_vote",
          "type": "uint256"
        }
      ],
      "name": "VoteEvent",
      "type": "event"
    },
    {
      "inputs": [
        {
          "internalType": "address",
          "name": "",
          "type": "address"
        }
      ],
      "name": "Admins",
      "outputs": [
        {
          "internalType": "bool",
          "name": "",
          "type": "bool"
        }
      ],
      "stateMutability": "view",
      "type": "function",
      "constant": true
    },
    {
      "inputs": [
        {
          "internalType": "address",
          "name": "",
          "type": "address"
        },
        {
          "internalType": "uint256",
          "name": "",
          "type": "uint256"
        }
      ],
      "name": "SubjectPlusVoteList",
      "outputs": [
        {
          "internalType": "uint256",
          "name": "subject",
          "type": "uint256"
        },
        {
          "internalType": "uint256",
          "name": "vote",
          "type": "uint256"
        }
      ],
      "stateMutability": "view",
      "type": "function",
      "constant": true
    },
    {
      "inputs": [
        {
          "internalType": "uint256",
          "name": "",
          "type": "uint256"
        }
      ],
      "name": "Subjects",
      "outputs": [
        {
          "internalType": "string",
          "name": "name",
          "type": "string"
        },
        {
          "internalType": "string",
          "name": "description",
          "type": "string"
        },
        {
          "internalType": "uint256",
          "name": "rate",
          "type": "uint256"
        },
        {
          "internalType": "uint256",
          "name": "startDate",
          "type": "uint256"
        },
        {
          "internalType": "uint256",
          "name": "endDate",
          "type": "uint256"
        },
        {
          "internalType": "bool",
          "name": "active",
          "type": "bool"
        }
      ],
      "stateMutability": "view",
      "type": "function",
      "constant": true
    },
    {
      "inputs": [
        {
          "internalType": "uint256",
          "name": "",
          "type": "uint256"
        }
      ],
      "name": "UserById",
      "outputs": [
        {
          "internalType": "address",
          "name": "",
          "type": "address"
        }
      ],
      "stateMutability": "view",
      "type": "function",
      "constant": true
    },
    {
      "inputs": [
        {
          "internalType": "address",
          "name": "",
          "type": "address"
        },
        {
          "internalType": "uint256",
          "name": "",
          "type": "uint256"
        }
      ],
      "name": "UserSubjects",
      "outputs": [
        {
          "internalType": "uint256",
          "name": "",
          "type": "uint256"
        }
      ],
      "stateMutability": "view",
      "type": "function",
      "constant": true
    },
    {
      "inputs": [
        {
          "internalType": "address",
          "name": "",
          "type": "address"
        }
      ],
      "name": "Users",
      "outputs": [
        {
          "internalType": "uint256",
          "name": "id",
          "type": "uint256"
        },
        {
          "internalType": "uint256",
          "name": "rate",
          "type": "uint256"
        },
        {
          "internalType": "uint256",
          "name": "age",
          "type": "uint256"
        },
        {
          "internalType": "string",
          "name": "nickname",
          "type": "string"
        }
      ],
      "stateMutability": "view",
      "type": "function",
      "constant": true
    },
    {
      "inputs": [],
      "name": "name",
      "outputs": [
        {
          "internalType": "string",
          "name": "",
          "type": "string"
        }
      ],
      "stateMutability": "view",
      "type": "function",
      "constant": true
    },
    {
      "inputs": [],
      "name": "owner",
      "outputs": [
        {
          "internalType": "address",
          "name": "",
          "type": "address"
        }
      ],
      "stateMutability": "view",
      "type": "function",
      "constant": true
    },
    {
      "inputs": [],
      "name": "subjectId",
      "outputs": [
        {
          "internalType": "uint256",
          "name": "",
          "type": "uint256"
        }
      ],
      "stateMutability": "view",
      "type": "function",
      "constant": true
    },
    {
      "inputs": [],
      "name": "symbol",
      "outputs": [
        {
          "internalType": "string",
          "name": "",
          "type": "string"
        }
      ],
      "stateMutability": "view",
      "type": "function",
      "constant": true
    },
    {
      "inputs": [],
      "name": "userId",
      "outputs": [
        {
          "internalType": "uint256",
          "name": "",
          "type": "uint256"
        }
      ],
      "stateMutability": "view",
      "type": "function",
      "constant": true
    },
    {
      "inputs": [],
      "name": "voteTokenAddress",
      "outputs": [
        {
          "internalType": "address",
          "name": "",
          "type": "address"
        }
      ],
      "stateMutability": "view",
      "type": "function",
      "constant": true
    },
    {
      "inputs": [
        {
          "internalType": "address",
          "name": "_address",
          "type": "address"
        }
      ],
      "name": "setVoteTokenAddress",
      "outputs": [],
      "stateMutability": "nonpayable",
      "type": "function"
    },
    {
      "inputs": [
        {
          "internalType": "address",
          "name": "_address",
          "type": "address"
        },
        {
          "internalType": "bool",
          "name": "_status",
          "type": "bool"
        }
      ],
      "name": "setAdmin",
      "outputs": [],
      "stateMutability": "nonpayable",
      "type": "function"
    },
    {
      "inputs": [
        {
          "internalType": "uint256",
          "name": "_age",
          "type": "uint256"
        },
        {
          "internalType": "string",
          "name": "_nickname",
          "type": "string"
        }
      ],
      "name": "signup",
      "outputs": [],
      "stateMutability": "nonpayable",
      "type": "function"
    },
    {
      "inputs": [
        {
          "internalType": "string",
          "name": "_name",
          "type": "string"
        },
        {
          "internalType": "string",
          "name": "_description",
          "type": "string"
        },
        {
          "internalType": "uint256",
          "name": "_rate",
          "type": "uint256"
        },
        {
          "internalType": "uint256",
          "name": "_startDate",
          "type": "uint256"
        },
        {
          "internalType": "uint256",
          "name": "_endDate",
          "type": "uint256"
        }
      ],
      "name": "addSubject",
      "outputs": [],
      "stateMutability": "nonpayable",
      "type": "function"
    },
    {
      "inputs": [
        {
          "internalType": "uint256",
          "name": "_subjectId",
          "type": "uint256"
        },
        {
          "internalType": "uint256",
          "name": "_vote",
          "type": "uint256"
        }
      ],
      "name": "vote",
      "outputs": [],
      "stateMutability": "nonpayable",
      "type": "function"
    },
    {
      "inputs": [
        {
          "internalType": "uint256",
          "name": "_subjectId",
          "type": "uint256"
        },
        {
          "internalType": "address",
          "name": "userAddress",
          "type": "address"
        }
      ],
      "name": "getUserVote",
      "outputs": [
        {
          "internalType": "uint256",
          "name": "",
          "type": "uint256"
        }
      ],
      "stateMutability": "view",
      "type": "function",
      "constant": true
    },
    {
      "inputs": [
        {
          "internalType": "address",
          "name": "_userAddress",
          "type": "address"
        }
      ],
      "name": "getUserSubjects",
      "outputs": [
        {
          "internalType": "uint256[]",
          "name": "",
          "type": "uint256[]"
        }
      ],
      "stateMutability": "view",
      "type": "function",
      "constant": true
    }
  ],
  "bytecode": "0x60806040523480156200001157600080fd5b50604051620020963803806200209683398181016040528101906200003791906200022c565b82600290805190602001906200004f929190620000f3565b50816003908051906020019062000068929190620000f3565b50336000806101000a81548173ffffffffffffffffffffffffffffffffffffffff021916908373ffffffffffffffffffffffffffffffffffffffff16021790555080600160006101000a81548173ffffffffffffffffffffffffffffffffffffffff021916908373ffffffffffffffffffffffffffffffffffffffff16021790555050505062000433565b828054620001019062000385565b90600052602060002090601f01602090048101928262000125576000855562000171565b82601f106200014057805160ff191683800117855562000171565b8280016001018555821562000171579182015b828111156200017057825182559160200191906001019062000153565b5b50905062000180919062000184565b5090565b5b808211156200019f57600081600090555060010162000185565b5090565b6000620001ba620001b484620002e8565b620002b4565b905082815260208101848484011115620001d357600080fd5b620001e08482856200034f565b509392505050565b600081519050620001f98162000419565b92915050565b600082601f8301126200021157600080fd5b815162000223848260208601620001a3565b91505092915050565b6000806000606084860312156200024257600080fd5b600084015167ffffffffffffffff8111156200025d57600080fd5b6200026b86828701620001ff565b935050602084015167ffffffffffffffff8111156200028957600080fd5b6200029786828701620001ff565b9250506040620002aa86828701620001e8565b9150509250925092565b6000604051905081810181811067ffffffffffffffff82111715620002de57620002dd620003ea565b5b8060405250919050565b600067ffffffffffffffff821115620003065762000305620003ea565b5b601f19601f8301169050602081019050919050565b600062000328826200032f565b9050919050565b600073ffffffffffffffffffffffffffffffffffffffff82169050919050565b60005b838110156200036f57808201518184015260208101905062000352565b838111156200037f576000848401525b50505050565b600060028204905060018216806200039e57607f821691505b60208210811415620003b557620003b4620003bb565b5b50919050565b7f4e487b7100000000000000000000000000000000000000000000000000000000600052602260045260246000fd5b7f4e487b7100000000000000000000000000000000000000000000000000000000600052604160045260246000fd5b62000424816200031b565b81146200043057600080fd5b50565b611c5380620004436000396000f3fe608060405234801561001057600080fd5b50600436106101215760003560e01c806358975919116100ad578063b384abef11610071578063b384abef14610335578063dab9743d14610351578063ddfb444f1461036d578063e0fd77b21461039e578063fb799c2f146103ba57610121565b806358975919146102785780636fe2ff31146102965780638da5cb5b146102c657806395d89b41146102e457806399b956a01461030257610121565b806324574d4d116100f457806324574d4d146101c05780632ce4b3a1146101de5780634b0bddd21461020e5780635092e68a1461022a5780635163b1911461024857610121565b806303c7881a1461012657806306fdde03146101565780630ec6d58a146101745780630f350d34146101a4575b600080fd5b610140600480360381019061013b9190611405565b6103ef565b60405161014d91906118e2565b60405180910390f35b61015e61044d565b60405161016b91906117b1565b60405180910390f35b61018e6004803603810190610189919061126b565b6104db565b60405161019b9190611796565b60405180910390f35b6101be60048036038101906101b9919061126b565b6104fb565b005b6101c86105cd565b6040516101d591906118e2565b60405180910390f35b6101f860048036038101906101f391906112d0565b6105d3565b60405161020591906118e2565b60405180910390f35b61022860048036038101906102239190611294565b610604565b005b6102326106ed565b60405161023f9190611722565b60405180910390f35b610262600480360381019061025d919061126b565b610713565b60405161026f9190611774565b60405180910390f35b6102806107aa565b60405161028d91906118e2565b60405180910390f35b6102b060048036038101906102ab91906113b3565b6107b0565b6040516102bd9190611722565b60405180910390f35b6102ce6107e3565b6040516102db9190611722565b60405180910390f35b6102ec610807565b6040516102f991906117b1565b60405180910390f35b61031c6004803603810190610317919061126b565b610895565b60405161032c9493929190611926565b60405180910390f35b61034f600480360381019061034a9190611495565b61094d565b005b61036b60048036038101906103669190611441565b610cb4565b005b610387600480360381019061038291906112d0565b610e0d565b6040516103959291906118fd565b60405180910390f35b6103b860048036038101906103b3919061130c565b610e4e565b005b6103d460048036038101906103cf91906113b3565b610fb3565b6040516103e6969594939291906117d3565b60405180910390f35b6000600760008373ffffffffffffffffffffffffffffffffffffffff1673ffffffffffffffffffffffffffffffffffffffff168152602001908152602001600020600401600084815260200190815260200160002054905092915050565b6002805461045a90611b08565b80601f016020809104026020016040519081016040528092919081815260200182805461048690611b08565b80156104d35780601f106104a8576101008083540402835291602001916104d3565b820191906000526020600020905b8154815290600101906020018083116104b657829003601f168201915b505050505081565b60066020528060005260406000206000915054906101000a900460ff1681565b60008054906101000a900473ffffffffffffffffffffffffffffffffffffffff1673ffffffffffffffffffffffffffffffffffffffff163373ffffffffffffffffffffffffffffffffffffffff1614610589576040517f08c379a000000000000000000000000000000000000000000000000000000000815260040161058090611862565b60405180910390fd5b80600160006101000a81548173ffffffffffffffffffffffffffffffffffffffff021916908373ffffffffffffffffffffffffffffffffffffffff16021790555050565b60055481565b600a60205281600052604060002081815481106105ef57600080fd5b90600052602060002001600091509150505481565b60008054906101000a900473ffffffffffffffffffffffffffffffffffffffff1673ffffffffffffffffffffffffffffffffffffffff163373ffffffffffffffffffffffffffffffffffffffff1614610692576040517f08c379a000000000000000000000000000000000000000000000000000000000815260040161068990611862565b60405180910390fd5b80600660008473ffffffffffffffffffffffffffffffffffffffff1673ffffffffffffffffffffffffffffffffffffffff16815260200190815260200160002060006101000a81548160ff0219169083151502179055505050565b600160009054906101000a900473ffffffffffffffffffffffffffffffffffffffff1681565b6060600a60008373ffffffffffffffffffffffffffffffffffffffff1673ffffffffffffffffffffffffffffffffffffffff16815260200190815260200160002080548060200260200160405190810160405280929190818152602001828054801561079e57602002820191906000526020600020905b81548152602001906001019080831161078a575b50505050509050919050565b60045481565b60086020528060005260406000206000915054906101000a900473ffffffffffffffffffffffffffffffffffffffff1681565b60008054906101000a900473ffffffffffffffffffffffffffffffffffffffff1681565b6003805461081490611b08565b80601f016020809104026020016040519081016040528092919081815260200182805461084090611b08565b801561088d5780601f106108625761010080835404028352916020019161088d565b820191906000526020600020905b81548152906001019060200180831161087057829003601f168201915b505050505081565b60076020528060005260406000206000915090508060000154908060010154908060020154908060030180546108ca90611b08565b80601f01602080910402602001604051908101604052809291908181526020018280546108f690611b08565b80156109435780601f1061091857610100808354040283529160200191610943565b820191906000526020600020905b81548152906001019060200180831161092657829003601f168201915b5050505050905084565b6000600760003373ffffffffffffffffffffffffffffffffffffffff1673ffffffffffffffffffffffffffffffffffffffff1681526020019081526020016000206000015414156109d3576040517f08c379a00000000000000000000000000000000000000000000000000000000081526004016109ca906118a2565b60405180910390fd5b6009600083815260200190815260200160002060020154811115610a2c576040517f08c379a0000000000000000000000000000000000000000000000000000000008152600401610a2390611842565b60405180910390fd5b6000600160009054906101000a900473ffffffffffffffffffffffffffffffffffffffff16905060008173ffffffffffffffffffffffffffffffffffffffff166370a08231336040518263ffffffff1660e01b8152600401610a8e9190611722565b60206040518083038186803b158015610aa657600080fd5b505afa158015610aba573d6000803e3d6000fd5b505050506040513d601f19601f82011682018060405250810190610ade91906113dc565b11610b1e576040517f08c379a0000000000000000000000000000000000000000000000000000000008152600401610b1590611882565b60405180910390fd5b6000604051806040016040528085815260200184815250905082600760003373ffffffffffffffffffffffffffffffffffffffff1673ffffffffffffffffffffffffffffffffffffffff168152602001908152602001600020600401600086815260200190815260200160002081905550600a60003373ffffffffffffffffffffffffffffffffffffffff1673ffffffffffffffffffffffffffffffffffffffff168152602001908152602001600020849080600181540180825580915050600190039060005260206000200160009091909190915055600b60003373ffffffffffffffffffffffffffffffffffffffff1673ffffffffffffffffffffffffffffffffffffffff168152602001908152602001600020819080600181540180825580915050600190039060005260206000209060020201600090919091909150600082015181600001556020820151816001015550507ea6a07a12abd0e14095075702619f674b917829771316489ee2b35851533ba5338585604051610ca69392919061173d565b60405180910390a150505050565b600160046000828254610cc79190611a28565b925050819055503360086000600454815260200190815260200160002060006101000a81548173ffffffffffffffffffffffffffffffffffffffff021916908373ffffffffffffffffffffffffffffffffffffffff160217905550600454600760003373ffffffffffffffffffffffffffffffffffffffff1673ffffffffffffffffffffffffffffffffffffffff1681526020019081526020016000206000018190555081600760003373ffffffffffffffffffffffffffffffffffffffff1673ffffffffffffffffffffffffffffffffffffffff1681526020019081526020016000206002018190555080600760003373ffffffffffffffffffffffffffffffffffffffff1673ffffffffffffffffffffffffffffffffffffffff1681526020019081526020016000206003019080519060200190610e0892919061110c565b505050565b600b6020528160005260406000208181548110610e2957600080fd5b9060005260206000209060020201600091509150508060000154908060010154905082565b60011515600660003373ffffffffffffffffffffffffffffffffffffffff1673ffffffffffffffffffffffffffffffffffffffff16815260200190815260200160002060009054906101000a900460ff16151514610ee1576040517f08c379a0000000000000000000000000000000000000000000000000000000008152600401610ed8906118c2565b60405180910390fd5b600160056000828254610ef49190611a28565b92505081905550846009600060055481526020019081526020016000206000019080519060200190610f2792919061110c565b50836009600060055481526020019081526020016000206001019080519060200190610f5492919061110c565b508260096000600554815260200190815260200160002060020181905550816009600060055481526020019081526020016000206003018190555080600960006005548152602001908152602001600020600401819055505050505050565b6009602052806000526040600020600091509050806000018054610fd690611b08565b80601f016020809104026020016040519081016040528092919081815260200182805461100290611b08565b801561104f5780601f106110245761010080835404028352916020019161104f565b820191906000526020600020905b81548152906001019060200180831161103257829003601f168201915b50505050509080600101805461106490611b08565b80601f016020809104026020016040519081016040528092919081815260200182805461109090611b08565b80156110dd5780601f106110b2576101008083540402835291602001916110dd565b820191906000526020600020905b8154815290600101906020018083116110c057829003601f168201915b5050505050908060020154908060030154908060040154908060050160009054906101000a900460ff16905086565b82805461111890611b08565b90600052602060002090601f01602090048101928261113a5760008555611181565b82601f1061115357805160ff1916838001178555611181565b82800160010185558215611181579182015b82811115611180578251825591602001919060010190611165565b5b50905061118e9190611192565b5090565b5b808211156111ab576000816000905550600101611193565b5090565b60006111c26111bd846119a3565b611972565b9050828152602081018484840111156111da57600080fd5b6111e5848285611ac6565b509392505050565b6000813590506111fc81611bd8565b92915050565b60008135905061121181611bef565b92915050565b600082601f83011261122857600080fd5b81356112388482602086016111af565b91505092915050565b60008135905061125081611c06565b92915050565b60008151905061126581611c06565b92915050565b60006020828403121561127d57600080fd5b600061128b848285016111ed565b91505092915050565b600080604083850312156112a757600080fd5b60006112b5858286016111ed565b92505060206112c685828601611202565b9150509250929050565b600080604083850312156112e357600080fd5b60006112f1858286016111ed565b925050602061130285828601611241565b9150509250929050565b600080600080600060a0868803121561132457600080fd5b600086013567ffffffffffffffff81111561133e57600080fd5b61134a88828901611217565b955050602086013567ffffffffffffffff81111561136757600080fd5b61137388828901611217565b945050604061138488828901611241565b935050606061139588828901611241565b92505060806113a688828901611241565b9150509295509295909350565b6000602082840312156113c557600080fd5b60006113d384828501611241565b91505092915050565b6000602082840312156113ee57600080fd5b60006113fc84828501611256565b91505092915050565b6000806040838503121561141857600080fd5b600061142685828601611241565b9250506020611437858286016111ed565b9150509250929050565b6000806040838503121561145457600080fd5b600061146285828601611241565b925050602083013567ffffffffffffffff81111561147f57600080fd5b61148b85828601611217565b9150509250929050565b600080604083850312156114a857600080fd5b60006114b685828601611241565b92505060206114c785828601611241565b9150509250929050565b60006114dd8383611704565b60208301905092915050565b6114f281611a7e565b82525050565b6000611503826119e3565b61150d8185611a06565b9350611518836119d3565b8060005b8381101561154957815161153088826114d1565b975061153b836119f9565b92505060018101905061151c565b5085935050505092915050565b61155f81611a90565b82525050565b6000611570826119ee565b61157a8185611a17565b935061158a818560208601611ad5565b61159381611bc7565b840191505092915050565b60006115ab602583611a17565b91507f5375626a65637420726174652063616e6e6f74206265206d6f7265207468616e60008301527f20726174650000000000000000000000000000000000000000000000000000006020830152604082019050919050565b6000611611600a83611a17565b91507f4f6e6c79206f776e6572000000000000000000000000000000000000000000006000830152602082019050919050565b6000611651601283611a17565b91507f4f6e6c6520746f6b656e73206f776e65727300000000000000000000000000006000830152602082019050919050565b6000611691601483611a17565b91507f4e6f7420726567697374657265642075736572210000000000000000000000006000830152602082019050919050565b60006116d1600b83611a17565b91507f4f6e6c792061646d696e210000000000000000000000000000000000000000006000830152602082019050919050565b61170d81611abc565b82525050565b61171c81611abc565b82525050565b600060208201905061173760008301846114e9565b92915050565b600060608201905061175260008301866114e9565b61175f6020830185611713565b61176c6040830184611713565b949350505050565b6000602082019050818103600083015261178e81846114f8565b905092915050565b60006020820190506117ab6000830184611556565b92915050565b600060208201905081810360008301526117cb8184611565565b905092915050565b600060c08201905081810360008301526117ed8189611565565b905081810360208301526118018188611565565b90506118106040830187611713565b61181d6060830186611713565b61182a6080830185611713565b61183760a0830184611556565b979650505050505050565b6000602082019050818103600083015261185b8161159e565b9050919050565b6000602082019050818103600083015261187b81611604565b9050919050565b6000602082019050818103600083015261189b81611644565b9050919050565b600060208201905081810360008301526118bb81611684565b9050919050565b600060208201905081810360008301526118db816116c4565b9050919050565b60006020820190506118f76000830184611713565b92915050565b60006040820190506119126000830185611713565b61191f6020830184611713565b9392505050565b600060808201905061193b6000830187611713565b6119486020830186611713565b6119556040830185611713565b81810360608301526119678184611565565b905095945050505050565b6000604051905081810181811067ffffffffffffffff8211171561199957611998611b98565b5b8060405250919050565b600067ffffffffffffffff8211156119be576119bd611b98565b5b601f19601f8301169050602081019050919050565b6000819050602082019050919050565b600081519050919050565b600081519050919050565b6000602082019050919050565b600082825260208201905092915050565b600082825260208201905092915050565b6000611a3382611abc565b9150611a3e83611abc565b9250827fffffffffffffffffffffffffffffffffffffffffffffffffffffffffffffffff03821115611a7357611a72611b3a565b5b828201905092915050565b6000611a8982611a9c565b9050919050565b60008115159050919050565b600073ffffffffffffffffffffffffffffffffffffffff82169050919050565b6000819050919050565b82818337600083830152505050565b60005b83811015611af3578082015181840152602081019050611ad8565b83811115611b02576000848401525b50505050565b60006002820490506001821680611b2057607f821691505b60208210811415611b3457611b33611b69565b5b50919050565b7f4e487b7100000000000000000000000000000000000000000000000000000000600052601160045260246000fd5b7f4e487b7100000000000000000000000000000000000000000000000000000000600052602260045260246000fd5b7f4e487b7100000000000000000000000000000000000000000000000000000000600052604160045260246000fd5b6000601f19601f8301169050919050565b611be181611a7e565b8114611bec57600080fd5b50565b611bf881611a90565b8114611c0357600080fd5b50565b611c0f81611abc565b8114611c1a57600080fd5b5056fea2646970667358221220557a3b1ee0367da525bb697fc23f9c188063d0c013435ca61d71aba8a958071b64736f6c63430008000033",
  "immutableReferences": {},
  "source": "// SPDX-License-Identifier: MIT\npragma solidity >=0.4.22 <0.9.0;\npragma experimental ABIEncoderV2;\n\nimport '@openzeppelin/contracts/token/ERC20/IERC20.sol';\n\ncontract Voting {\n    address public owner;\n    address public voteTokenAddress;\n    string public name;\n    string public symbol;\n\n    uint public userId;\n    uint public subjectId;\n\n    event VoteEvent (address _userAddress, uint _subject, uint _vote);\n\n    struct user {\n        uint id;\n        uint rate;\n        uint age;\n        string nickname;\n\n        mapping(uint => uint) Vote;\n    }\n\n    struct subject {\n        string name;\n        string description;\n        uint rate;\n        uint startDate;\n        uint endDate;\n        bool active;\n    }\n\n    struct subjectAndVote {\n        uint subject;\n        uint vote;\n    }\n\n    constructor(string memory _name, string memory _symbol, address _address) {\n        name = _name;\n        symbol = _symbol;\n        owner = msg.sender;\n        voteTokenAddress = _address;\n    }\n\n    mapping(address => bool) public Admins;\n    mapping(address => user) public Users;\n    mapping(uint => address) public UserById;\n\n    mapping(uint => subject) public Subjects;\n\n    mapping(address => uint[]) public UserSubjects;\n\n    mapping(address => subjectAndVote[]) public SubjectPlusVoteList;\n\n    modifier onlyOwner(){\n        require(msg.sender == owner, \"Only owner\");\n        _;\n    }\n\n    modifier onlyAdmin(){\n        require(Admins[msg.sender] == true, \"Only admin!\");\n        _;\n    }\n\n\n    function setVoteTokenAddress(address _address) public onlyOwner {\n        voteTokenAddress = _address;\n    }\n\n    function setAdmin(address _address, bool _status) public onlyOwner {\n        Admins[_address] = _status;\n    }\n\n    function signup(uint _age, string memory _nickname) public {\n        userId += 1;\n\n        UserById[userId] = msg.sender;\n        Users[msg.sender].id = userId;\n        Users[msg.sender].age = _age;\n        Users[msg.sender].nickname = _nickname;\n    }\n\n    function addSubject(string memory _name,\n        string memory _description,\n        uint _rate,\n        uint _startDate,\n        uint _endDate) public onlyAdmin {\n\n        subjectId += 1;\n\n        Subjects[subjectId].name = _name;\n        Subjects[subjectId].description = _description;\n        Subjects[subjectId].rate = _rate;\n        Subjects[subjectId].startDate = _startDate;\n        Subjects[subjectId].endDate = _endDate;\n    }\n\n    function vote(uint _subjectId, uint _vote) public {\n        require(Users[msg.sender].id != 0, \"Not registered user!\");\n        require(_vote <= Subjects[_subjectId].rate, \"Subject rate cannot be more than rate\");\n\n        IERC20 _vote_token = IERC20(voteTokenAddress);\n        require(_vote_token.balanceOf(msg.sender) > 0, \"Onle tokens owners\");\n        \n        subjectAndVote memory currentList = subjectAndVote ({subject: _subjectId, vote: _vote});\n\n        Users[msg.sender].Vote[_subjectId] = _vote;\n        UserSubjects[msg.sender].push(_subjectId);\n\n        SubjectPlusVoteList[msg.sender].push(currentList);\n\n        emit VoteEvent(msg.sender, _subjectId, _vote);\n    }\n\n    function getUserVote(uint _subjectId, address userAddress) public view returns (uint) {\n        return Users[userAddress].Vote[_subjectId];\n    }\n\n    function getUserSubjects(address _userAddress) public view returns (uint[] memory){\n        return UserSubjects[_userAddress];\n    }\n}",
  "sourcePath": "/Users/pro/Development/blockchain/solidity_course/16Start/solidity/lesson2/contracts/Voting.sol",
  "compiler": {
    "name": "solc",
    "version": "0.8.0+commit.c7dfd78e.Emscripten.clang"
  },
  "schemaVersion": "3.4.3",
  "updatedAt": "2021-10-31T14:05:14.151Z",
  "networkType": "ethereum",
  "devdoc": {
    "kind": "dev",
    "methods": {},
    "version": 1
  },
  "userdoc": {
    "kind": "user",
    "methods": {},
    "version": 1
  }
}