{
  "contractName": "Accounting",
  "abi": [
    {
      "inputs": [],
      "stateMutability": "nonpayable",
      "type": "constructor"
    },
    {
      "inputs": [
        {
          "internalType": "address",
          "name": "",
          "type": "address"
        }
      ],
      "name": "UserDeposit",
      "outputs": [
        {
          "internalType": "uint256",
          "name": "",
          "type": "uint256"
        }
      ],
      "stateMutability": "view",
      "type": "function",
      "constant": true
    },
    {
      "inputs": [],
      "name": "deposit",
      "outputs": [
        {
          "internalType": "uint256",
          "name": "",
          "type": "uint256"
        }
      ],
      "stateMutability": "view",
      "type": "function",
      "constant": true
    },
    {
      "inputs": [
        {
          "internalType": "uint256",
          "name": "_deposit",
          "type": "uint256"
        }
      ],
      "name": "addDeposit",
      "outputs": [],
      "stateMutability": "nonpayable",
      "type": "function"
    },
    {
      "inputs": [
        {
          "internalType": "uint256",
          "name": "_deposit_remove",
          "type": "uint256"
        }
      ],
      "name": "removeDeposit",
      "outputs": [],
      "stateMutability": "nonpayable",
      "type": "function"
    }
  ],
  "bytecode": "0x608060405234801561001057600080fd5b5061043d806100206000396000f3fe608060405234801561001057600080fd5b506004361061004c5760003560e01c80634d6d199114610051578063916a25ff1461006d578063a6f1fd511461009d578063d0e30db0146100b9575b600080fd5b61006b60048036038101906100669190610291565b6100d7565b005b61008760048036038101906100829190610268565b6101af565b60405161009491906102c9565b60405180910390f35b6100b760048036038101906100b29190610291565b6101c7565b005b6100c1610238565b6040516100ce91906102c9565b60405180910390f35b600160003373ffffffffffffffffffffffffffffffffffffffff1673ffffffffffffffffffffffffffffffffffffffff1681526020019081526020016000205481106101ac5780600160003373ffffffffffffffffffffffffffffffffffffffff1673ffffffffffffffffffffffffffffffffffffffff16815260200190815260200160002054610168919061033a565b600160003373ffffffffffffffffffffffffffffffffffffffff1673ffffffffffffffffffffffffffffffffffffffff168152602001908152602001600020819055505b50565b60016020528060005260406000206000915090505481565b806000808282546101d891906102e4565b9250508190555080600160003373ffffffffffffffffffffffffffffffffffffffff1673ffffffffffffffffffffffffffffffffffffffff168152602001908152602001600020600082825461022e91906102e4565b9250508190555050565b60005481565b60008135905061024d816103d9565b92915050565b600081359050610262816103f0565b92915050565b60006020828403121561027a57600080fd5b60006102888482850161023e565b91505092915050565b6000602082840312156102a357600080fd5b60006102b184828501610253565b91505092915050565b6102c3816103a0565b82525050565b60006020820190506102de60008301846102ba565b92915050565b60006102ef826103a0565b91506102fa836103a0565b9250827fffffffffffffffffffffffffffffffffffffffffffffffffffffffffffffffff0382111561032f5761032e6103aa565b5b828201905092915050565b6000610345826103a0565b9150610350836103a0565b925082821015610363576103626103aa565b5b828203905092915050565b600061037982610380565b9050919050565b600073ffffffffffffffffffffffffffffffffffffffff82169050919050565b6000819050919050565b7f4e487b7100000000000000000000000000000000000000000000000000000000600052601160045260246000fd5b6103e28161036e565b81146103ed57600080fd5b50565b6103f9816103a0565b811461040457600080fd5b5056fea26469706673582212205bbeb4055defe77ed50f559b702d43cad5d9f862778cd325cac198cdda6bd6c664736f6c63430008000033",
  "immutableReferences": {},
  "source": "pragma solidity ^0.8.0;\n\ncontract Accounting {\n\n    uint public deposit;\n\n    mapping(address => uint) public UserDeposit;\n\n    constructor () {\n\n    }\n    function addDeposit(uint _deposit) public {\n       deposit += _deposit;\n       UserDeposit[msg.sender] += _deposit;\n    }\n\n    function removeDeposit(uint _deposit_remove) public {\n       if (_deposit_remove >= UserDeposit[msg.sender]) {\n           UserDeposit[msg.sender] = UserDeposit[msg.sender] - _deposit_remove;\n       }\n    }\n}",
  "sourcePath": "/Users/pro/Development/blockchain/solidity_course/16Start/solidity/lesson3.1/contracts/Accounting.sol",
  "compiler": {
    "name": "solc",
    "version": "0.8.0+commit.c7dfd78e.Emscripten.clang"
  },
  "schemaVersion": "3.4.3",
  "updatedAt": "2021-11-20T10:43:48.393Z",
  "networkType": "ethereum",
  "devdoc": {
    "kind": "dev",
    "methods": {},
    "version": 1
  },
  "userdoc": {
    "kind": "user",
    "methods": {},
    "version": 1
  }
}